:020000040000fa
:080000000002040000000000f2
:020000040000fa
:0400080004030000ed
:020000040000fa
:04000c0004030000e9
:020000040000fa
:0400100004030000e5
:020000040000fa
:0400140004030000e1
:020000040000fa
:0400180004030000dd
:020000040000fa
:04001c0004030000d9
:020000040000fa
:0400200004030000d5
:020000040000fa
:0400240004030000d1
:020000040000fa
:0400280004030000cd
:020000040000fa
:04002c0004030000c9
:020000040000fa
:0400300004030000c5
:020000040000fa
:0400340004030000c1
:020000040000fa
:0400380004030000bd
:020000040000fa
:04003c0004030000b9
:020000040000fa
:0400400004030000b5
:020000040000fa
:0400440004030000b1
:020000040000fa
:040048006c7c0000cc
:020000040000fa
:04004c0004030000a9
:020000040000fa
:0400500004030000a5
:020000040000fa
:0400540004030000a1
:020000040000fa
:04005800040300009d
:020000040000fa
:04005c00cc7c000058
:020000040000fa
:040060000403000095
:020000040000fa
:040064000403000091
:020000040000fa
:04006800040300008d
:020000040000fa
:04006c000403000089
:020000040000fa
:040070000403000085
:020000040000fa
:040074000403000081
:020000040000fa
:040078001a8b0000df
:020000040000fa
:04007c000403000079
:020000040000fa
:040080000403000075
:020000040000fa
:040084000403000071
:020000040000fa
:04008800040300006d
:020000040000fa
:04008c000403000069
:020000040000fa
:040090000403000065
:020000040000fa
:040094000403000061
:020000040000fa
:04009800040300005d
:020000040000fa
:04009c000403000059
:020000040000fa
:0400a0000403000055
:020000040000fa
:0400a4000403000051
:020000040000fa
:0400a800040300004d
:020000040000fa
:0400ac000403000049
:020000040000fa
:0400b0000403000045
:020000040000fa
:0400b4000403000041
:020000040000fa
:0400b800040300003d
:020000040000fa
:0400bc000403000039
:020000040000fa
:0400c0000403000035
:020000040000fa
:0400c4000403000031
:020000040000fa
:0400c800040300002d
:020000040000fa
:0400cc000403000029
:020000040000fa
:0400d0000403000025
:020000040000fa
:0400d4000403000021
:020000040000fa
:0400d800040300001d
:020000040000fa
:0400dc000403000019
:020000040000fa
:0400e0000403000015
:020000040000fa
:0400e4000403000011
:020000040000fa
:0400e800040300000d
:020000040000fa
:0400ec000403000009
:020000040000fa
:0400f0000403000005
:020000040000fa
:0400f4000403000001
:020000040000fa
:0400f80004030000fd
:020000040000fa
:0400fc0004030000f9
:020000040000fa
:0401000004030000f4
:020000040000fa
:0401040004030000f0
:020000040000fa
:0401080004030000ec
:020000040000fa
:04010c0004030000e8
:020000040000fa
:0401100004030000e4
:020000040000fa
:0401140004030000e0
:020000040000fa
:0401180004030000dc
:020000040000fa
:04011c0004030000d8
:020000040000fa
:0401200004030000d4
:020000040000fa
:0401240004030000d0
:020000040000fa
:0401280004030000cc
:020000040000fa
:04012c0004030000c8
:020000040000fa
:0401300004030000c4
:020000040000fa
:0401340004030000c0
:020000040000fa
:0401380004030000bc
:020000040000fa
:04013c0004030000b8
:020000040000fa
:0401400004030000b4
:020000040000fa
:0401440004030000b0
:020000040000fa
:0401480004030000ac
:020000040000fa
:04014c0004030000a8
:020000040000fa
:0401500004030000a4
:020000040000fa
:0401540004030000a0
:020000040000fa
:04015800040300009c
:020000040000fa
:04015c000403000098
:020000040000fa
:040160000403000094
:020000040000fa
:040164000403000090
:020000040000fa
:04016800040300008c
:020000040000fa
:04016c000403000088
:020000040000fa
:040170000403000084
:020000040000fa
:040174000403000080
:020000040000fa
:04017800040300007c
:020000040000fa
:04017c000403000078
:020000040000fa
:040180000403000074
:020000040000fa
:040184000403000070
:020000040000fa
:04018800040300006c
:020000040000fa
:04018c000403000068
:020000040000fa
:040190000403000064
:020000040000fa
:040194000403000060
:020000040000fa
:04019800040300005c
:020000040000fa
:04019c000403000058
:020000040000fa
:0401a0000403000054
:020000040000fa
:0401a4000403000050
:020000040000fa
:0401a800040300004c
:020000040000fa
:0401ac000403000048
:020000040000fa
:0401b0000403000044
:020000040000fa
:0401b4000403000040
:020000040000fa
:0401b800040300003c
:020000040000fa
:0401bc000403000038
:020000040000fa
:0401c0000403000034
:020000040000fa
:0401c4000403000030
:020000040000fa
:0401c800040300002c
:020000040000fa
:0401cc000403000028
:020000040000fa
:0401d0000403000024
:020000040000fa
:0401d4000403000020
:020000040000fa
:0401d800040300001c
:020000040000fa
:0401dc000403000018
:020000040000fa
:0401e0000403000014
:020000040000fa
:0401e4000403000010
:020000040000fa
:0401e800040300000c
:020000040000fa
:0401ec000403000008
:020000040000fa
:0401f0000403000004
:020000040000fa
:0401f4000403000000
:020000040000fa
:0401f80004030000fc
:020000040000fa
:0401fc0004030000f8
:020000040000fa
:0402080004030000eb
:020000040000fa
:04020c0004030000e7
:020000040000fa
:0402100004030000e3
:020000040000fa
:0402140004030000df
:020000040000fa
:0402180004030000db
:020000040000fa
:04021c0004030000d7
:020000040000fa
:0402200004030000d3
:020000040000fa
:0402240004030000cf
:020000040000fa
:0402280004030000cb
:020000040000fa
:04022c0004030000c7
:020000040000fa
:0402300004030000c3
:020000040000fa
:0402340004030000bf
:020000040000fa
:0402380004030000bb
:020000040000fa
:04023c0004030000b7
:020000040000fa
:0402400004030000b3
:020000040000fa
:0402440004030000af
:020000040000fa
:0402480004030000ab
:020000040000fa
:04024c0004030000a7
:020000040000fa
:0402500004030000a3
:020000040000fa
:04025400040300009f
:020000040000fa
:04025800040300009b
:020000040000fa
:04025c000403000097
:020000040000fa
:040260000403000093
:020000040000fa
:04026400040300008f
:020000040000fa
:04026800040300008b
:020000040000fa
:04026c000403000087
:020000040000fa
:040270000403000083
:020000040000fa
:04027400040300007f
:020000040000fa
:04027800040300007b
:020000040000fa
:04027c000403000077
:020000040000fa
:040280000403000073
:020000040000fa
:04028400040300006f
:020000040000fa
:04028800040300006b
:020000040000fa
:04028c000403000067
:020000040000fa
:040290000403000063
:020000040000fa
:04029400040300005f
:020000040000fa
:04029800040300005b
:020000040000fa
:04029c000403000057
:020000040000fa
:0402a0000403000053
:020000040000fa
:0402a400040300004f
:020000040000fa
:0402a800040300004b
:020000040000fa
:0402ac000403000047
:020000040000fa
:0402b0000403000043
:020000040000fa
:0402b400040300003f
:020000040000fa
:0402b800040300003b
:020000040000fa
:0402bc000403000037
:020000040000fa
:0402c0000403000033
:020000040000fa
:0402c400040300002f
:020000040000fa
:0402c800040300002b
:020000040000fa
:0402cc000403000027
:020000040000fa
:0402d0000403000023
:020000040000fa
:0402d400040300001f
:020000040000fa
:0402d800040300001b
:020000040000fa
:0402dc000403000017
:020000040000fa
:0402e0000403000013
:020000040000fa
:0402e400040300000f
:020000040000fa
:0402e800040300000b
:020000040000fa
:0402ec000403000007
:020000040000fa
:0402f0000403000003
:020000040000fa
:0402f40004030000ff
:020000040000fa
:0402f80004030000fb
:020000040000fa
:0402fc0004030000f7
:020000040000fa
:0403000004030000f2
:020000040000fa
:0403040004030000ee
:020000040000fa
:0403080004030000ea
:020000040000fa
:04030c0004030000e6
:020000040000fa
:0403100004030000e2
:020000040000fa
:0403140004030000de
:020000040000fa
:0403180004030000da
:020000040000fa
:04031c0004030000d6
:020000040000fa
:0403200004030000d2
:020000040000fa
:0403240004030000ce
:020000040000fa
:0403280004030000ca
:020000040000fa
:04032c0004030000c6
:020000040000fa
:0403300004030000c2
:020000040000fa
:0403340004030000be
:020000040000fa
:0403380004030000ba
:020000040000fa
:04033c0004030000b6
:020000040000fa
:0403400004030000b2
:020000040000fa
:0403440004030000ae
:020000040000fa
:0403480004030000aa
:020000040000fa
:04034c0004030000a6
:020000040000fa
:0403500004030000a2
:020000040000fa
:04035400040300009e
:020000040000fa
:04035800040300009a
:020000040000fa
:04035c000403000096
:020000040000fa
:040360000403000092
:020000040000fa
:04036400040300008e
:020000040000fa
:04036800040300008a
:020000040000fa
:04036c000403000086
:020000040000fa
:040370000403000082
:020000040000fa
:04037400040300007e
:020000040000fa
:04037800040300007a
:020000040000fa
:04037c000403000076
:020000040000fa
:040380000403000072
:020000040000fa
:04038400040300006e
:020000040000fa
:04038800040300006a
:020000040000fa
:04038c000403000066
:020000040000fa
:040390000403000062
:020000040000fa
:04039400040300005e
:020000040000fa
:04039800040300005a
:020000040000fa
:04039c000403000056
:020000040000fa
:0403a0000403000052
:020000040000fa
:0403a400040300004e
:020000040000fa
:0403a800040300004a
:020000040000fa
:0403ac000403000046
:020000040000fa
:0403b0000403000042
:020000040000fa
:0403b400040300003e
:020000040000fa
:0403b800040300003a
:020000040000fa
:0403bc000403000036
:020000040000fa
:0403c0000403000032
:020000040000fa
:0403c400040300002e
:020000040000fa
:0403c800040300002a
:020000040000fa
:0403cc000403000026
:020000040000fa
:0403d0000403000022
:020000040000fa
:0403d400040300001e
:020000040000fa
:0403d800040300001a
:020000040000fa
:0403dc000403000016
:020000040000fa
:0403e0000403000012
:020000040000fa
:0403e400040300000e
:020000040000fa
:0403e800040300000a
:020000040000fa
:0403ec000403000006
:020000040000fa
:0403f0000403000002
:020000040000fa
:0403f40004030000fe
:020000040000fa
:0403f80004030000fa
:020000040000fa
:0403fc0004030000f6
:020000040000fa
:10040000cf1322000e7f22000e01880000000000a2
:10041000000020000000e000020032000001200087
:1004200020028800140007009a0007000000e00086
:1004300003003a00c05f29000100200002003700dd
:100440000000200001002000810f70000100320038
:1004500014000700000020000000e000020032004d
:100460000000020000000000d4860200000000002e
:100470000040da000000fe004440a900e010200027
:100480000000e000030032000020200090018800fe
:100490004440a800000006008a1f78008b1f7800e7
:1004a00000000600a1028800800478000000eb0034
:1004b0001f003700e284440054a0b4009905ba003c
:1004c000e284440054a0b4009906ba00e2844400d7
:1004d00054a0b4000006eb00476fde00fd07b20039
:1004e000ae018800636ce10003003a00eaff0700f8
:1004f0000000eb000e003700606ce10008003a00dd
:10050000004deb000a05e800020039003420ec0041
:100510000af0a0008b05e900f9ff3e000400370057
:100520006168e100010032000086eb000b0007006b
:1005300019c7ba001905ba000e04e00003003a001a
:100540000a00e000dbff3a0000000600fe07b200f0
:10055000ae0288008a047800f5ff37000cd0a300b3
:10056000e20f4d001c00390089027800354dba00b9
:100570000a05e800020039003420ec000af0a0006f
:100580008b05e9000f003200254dba000a05e8008e
:10059000020039003420ec000af0a0008b05e900cd
:1005a000080032000c00e0000600320015cdba0051
:1005b0000a05e800020039003420ec000af0a0002f
:1005c0008b05e9008984e80054a0b4000b00e0002a
:1005d000e2ff3a00000006009902ba00055d7800cb
:1005e0008b05e900f7ff3200c82ade00055d7800c0
:1005f0008b05e900f3ff32000c00e000f1ff320050
:1006000019ddba00eeff37000040da000000fe00fe
:10061000889fbe008004780090ea80000000e0001f
:1006200004003a000e0007000084eb000000e00028
:100630000800350098ea80000900e000050032005b
:1006400009004400060007000000e00001003d0032
:100650000084eb00080078004f04be000000060094
:10066000800078000100e00003003a0040d521003e
:1006700090ea8800000005000080eb00c213220011
:10068000828f500002003e0091ea88000000eb00db
:10069000000006000000050003f0a200889fbe00d5
:1006a0008a9fbe008c1f7800830007008a003300f9
:1006b0006450e1004f0032006420e100520032003b
:1006c00003826c0007003b000905d0000306d00040
:1006d000820f54000c065d00020039000200320057
:1006e00089017800030678008582550004003d00ea
:1006f0000003fd008103fd008502ea008b854200b6
:10070000840f720002003b0060001000e0801800bf
:100710006011b8000005eb007a28e1000a003900fa
:1007200006007800c75ddd00f707b200878075001e
:100730002d003700828171000a0178006105600098
:100740008180d1000080d3008502e900f9ff3b00e1
:10075000060440008784480002003b006004140047
:10076000e0841c000988a300070032008a81710020
:1007700082817100610164008904d1000884d30082
:100780008b05e800170037000978a30013003a0032
:100790000b00e000130034008b05e900080444005e
:1007a00089844c000a4474000978a3000d003a00c3
:1007b0000b00e000070034008b05e900080444004a
:1007c00089844c0001003a000b0020000978a30046
:1007d000f7ff32000001eb00020037008281710058
:1007e0000a0178000e0007000cf0a70001f0a0003d
:1007f000420037006420e10002003a00838f6c0061
:10080000420033000801be000200be003b0037007a
:10081000f4ff2f00740037006011b8008d0037001e
:1008200081002000618055000b003d000b0020007e
:1008300061fe2f000100e1001d0034008281710083
:10084000610164008904d1000884d3000000e8003d
:10085000faff3a007100200061006400030070009c
:10086000020060000900320061044400e0844c0092
:100870000988a500050032008b05e8006808e10042
:1008800002003a008904d1000884d300f20f20004e
:100890000258e10005003d00c75ddd00f907b20028
:1008a0008980750008007800000006000bf827001a
:1008b0008b007800000005000004be0094000700d3
:1008c0000003be000405be000200be009000070049
:1008d000844f7500000006000200be006450e10075
:1008e000050036006420e100020036000968a3001c
:1008f00001003a000800be000160a0004f06780029
:100900004f05be004f04be0000000600f0ff2f00a0
:10091000f1ff2700f9ff3700889fbe008a9fbe00c5
:100920008c1f7800e4ff0700ebff330003866c00a8
:100930006450e100240032006420e100270032000e
:100940006150e100220032006120e100210032000c
:100950008b854200eb07b1000134b800003ab800c3
:100960000804420089844a00013ab8000030b80007
:100970008880400009014a00040033000000400064
:1009800081804800020149008b05e900c909dd00aa
:10099000830170000100320013002000c814de0043
:1009a0004814dd004709de001200b200c808de006e
:1009b000088470009aff070001f0a1000cf0a70066
:1009c00001f0a000cdff37006120e100cfff320031
:1009d0000801be000200be00f7ff37006150e100d1
:1009e000fcff3a00c9ff3700889fbe008a9fbe0007
:1009f000841f7800b0ff07004f007800110033001b
:100a0000f0ff2f00838f6c0006003b00040565009b
:100a10000a00a7000800370009f0a6001000200017
:100a200008003700820f5400838f5c0003003900f8
:100a30001000200001003e000000200009f0a70087
:100a40000000ea004f05be004f04be000000e000b9
:100a500000000600889fbe008a9fbe0000827000d2
:100a60000402710004827100260032000004be00fe
:100a70000200be006011b8006b0920009502200042
:100a80000182cf000a0039000541b1000082cf0089
:100a9000070039000541b1000982cf000400390088
:100aa0000541b1000882cf00010039000541b100c5
:100ab00005425200120032000a003b0082817100a0
:100ac000610164008100d1000080d3008984d300db
:100ad0000884d3008b05e8000442e800f7ff3a00e1
:100ae000070037000804440089844c0000004800d7
:100af000818048008b05e9000442e900f9ff3a00d3
:100b000047ff07004f05be004f04be00000006006f
:100b1000c70ade00f107b200f50fb200080032008c
:100b2000e1cf4200020032000170a0002400050065
:100b3000810f700001003200040805004400050028
:100b4000810f700002003a00140005008502e900e0
:100b50000000400081c04800fcff3b000170a00085
:100b600024000500889fbe008a9fbe008c9fbe00a7
:100b7000a1d32100d2e980000200e0000b003a007e
:100b800064814000d2e9880022ea8800a100980030
:100b900011ea8800214190000204a000a2409800c0
:100ba000614190000204a000e24098006704400008
:100bb0004244de004244dd0014ea800041d52100b9
:100bc000c9132200818454002d0020001100090067
:100bd0008d04d800800678000886e8000c064600e0
:100be0008001eb0002003700130020000b027800a8
:100bf000a44090000108a300020032000a00370060
:100c0000120a780014017800a24090000108a300a5
:100c1000fbff320088004200810f510002003900c2
:100c20000800e00042003d00940578000b00a100a0
:100c3000848f5500edff3e00e18f5100eaff3a003e
:100c40008d0f540002003600890f54001400390043
:100c50006141b8006148b900b4ff2f0005002000d1
:100c60000000520081805a00800f5100818f59008e
:100c700002003500640544000a00370040d5210019
:100c8000fa1322000005550008054500110009006f
:100c90000985d8000980b9000005780001003700f7
:100ca0000c0578000a00780059fe0700e10f4000ab
:100cb00005003a00640544000a00780054fe07006d
:100cc000e10f40002b00320021ea8000800878000c
:100cd00021ea8000e481400021419000830f500010
:100ce000020032000204a000010037000204a1004b
:100cf000a2409800640555000a0540000a087800e3
:100d00002aea8800a1d32100010d780022ea8000a0
:100d1000a24090000104a00021419800a040900052
:100d20000104a100214098008001eb00afff3700d3
:100d300011ea8800810f5100070036001101be0042
:100d400032ea880043ea8800940878000041eb000a
:100d500011ea8000a240980013ea8000030a78009c
:100d6000a44090000104a0002142980064004200c9
:100d7000010037000000eb004f06be004f05be002b
:100d80004f04be00000006000000e0000800320032
:100d90006400500011ea8000810f50000100310012
:100da00010ea8800a04090000104a10021409800b2
:100db00000000600889fbe008a9fbe000004be009f
:100dc0000900e00007003a000000eb000800e00026
:100dd0003600320008007800ebff07000000eb004f
:100de000320037000800e00003003a0009007800f4
:100df0005cff07002d003700640054009005780068
:100e000068f897000008a30002003200080078008c
:100e1000ddff07000900780052ff0700800478001a
:100e20000000eb000900e00020003200888f540031
:100e30001b00320069bd97000905550042d5de0050
:100e400088855500c2ddde000a0178008b0f550051
:100e5000010036000b0178004211dd0088007800a7
:100e6000090078002d000700888f54000e00310023
:100e70004255dd000a854400880f55000a003600ff
:100e80000804550042c4de004244dd0008844400ea
:100e900030ea800041ea8000008cbe00020037008a
:100ea0000800780001003700090078004f05be00f7
:100eb0004f04be0000000600e68747008e1f780042
:100ec000d0bf9f00e1bf9f000e0037005fba9700c0
:100ed00014407800efb99700934078000201e900d0
:100ee000814f5000040032000080fb008180fb0035
:100ef000010050000600370066875700041fe80015
:100f0000030fe8000200e000f0ff3a000000eb00f1
:100f10004f0778006f00b1000000060080017800e4
:100f200002003700b15978000201e9000200e00038
:080f3000fcff3a00000006007e
:020000040000fa
:100f380000400000ce000000000000007f0000001c
:100f4800000000000000000010c1000000000000c8
:100f58000000000000000000000a0000000000007f
:100f6800010000000200000003000000040000006f
:100f7800050000000600000020000000210000001d
:100f8800220000000a00000000800000018000002c
:100f9800028000000380000004800000058000003b
:100fa80006800000208000002180000022800000d0
:100fb800f000000003010000ffff00000003000034
:100fc80009000000190000000700000000000000f0
:100fd8000000000000000000000000000000000009
:100fe80000000000000000000600000005000000ee
:100ff800060000000a0000001a00000008000000b7
:1010080001000000000000000000000000000000d7
:1010180000000000000000000000000000000000c8
:1010280000000000000000000000000000000000b8
:1010380000000000000000000000000000000000a8
:101048000000000000000000000000000000000098
:101058000000000000000000000000000000000088
:101068000000000000000000000000000000000078
:101078000000000000000000020100000f0f000047
:101088000005000000800000100600007800000045
:1010980000000000b4000000000000002c01000067
:1010a800000000001c02000000000000fc0300001b
:1010b80000000000bc070000000000003c0f00001a
:1010c800000000003c1e0000000000003c3c000046
:1010d800000000003c780000000000003cf0000028
:1010e800000000003ce00000010000003cc00000df
:1010f800030000003c800000070000003c000000e6
:101108000f00000030310000323300003435000099
:1011180036370000383900004142000043440000df
:10112800454600007374000061720000740a0000f4
:10113800006500006e64000000000000040000006c
:0c1148000000000000a3000004000000f4
:020000040000fa
:10115400f0da8000f007b2000000ea004f00de0081
:10116400000006007048e20021003a00c0bd2100e2
:1011740010007800e10060000000eb00380032004d
:1011840041cf210032c1b300914f110034003e0021
:1011940060852100100078006200600005003a00bc
:1011a40001802000e0b52100908060001000200044
:1011b4002b0032000000eb00c1ce210042c0b3007e
:1011c400914f110026003e00e980400052c0b30058
:1011d400914f110022003e0000002100e1b52100e2
:1011e400110060000000e9004f00de001c00370021
:1011f4000000eb0041cf210032c1b300914f110038
:1012040017003e0060852100100078006200600035
:1012140005003a0001802000e0b5210090806000c4
:10122400100020000e0032000000eb00c1ce2100af
:1012340042c0b300914f110009003e00e980400014
:1012440052c0b300914f110005003e000000210080
:10125400e1b52100110060000000e9004f00de004c
:1012640000000600889fbe008a1f78004a08f80024
:101274004e08f9000044eb0049ce21000a2020006a
:1012840022c1b3007142800060cd2100bf4307003a
:101294001900650005003200200120004e28b4002a
:1012a4000844e800f94f5400f5ff3a00084078007c
:1012b4004f0578004f04be00000006000400fa0049
:1012c400889fbe008a1f78008004780010db8000ad
:1012d4000000e0000c00320020b6210018c0b3006a
:1012e400030037000844e800e74f540030003200a0
:1012f4005000e000fbff3a000040eb00e74f5400d1
:1013040002003a002b0037000044eb000885fb0084
:1013140000c3b3004e470700800078000a80e8004d
:1013240000004000e2b52100013178000040eb00ec
:101334000100e0001f003200884c78000a85e800b4
:101344000a0545008204780069007d0080c0eb0036
:101354004148980069047d006a8057002c470700c3
:101364003fb89700cfb8970070049800010c98001c
:10137400100c9800210c980069017d00b2089000bf
:1013840000fd2f00008060000010a00030099800cc
:1013940076004100f202b00031c0b3000168780069
:1013a400820f5000fdff3a0010c0b3000100370067
:1013b4000040eb004f0578004f04be000080fa00a7
:1013c40000000600e6874700889fbe008a9fbe0093
:1013d4008c9fbe008e1f78000006780001077800fd
:1013e40082067800814280009142880062c0b30086
:1013f40080cf2100654307000c057800c0e780001a
:101404000044eb008c0f500066003a0023003700c4
:101414000844e80091428000e68040009142880040
:101424000b4178000900780058430700f04f54003e
:1014340004003200990f1500f5ff3a00f04f5400f4
:1014440016003a00814280009142880062c0b300d5
:1014540080cf21004d430700d0e780000044eb001b
:10146400e30f500045003a000c0037000844e80040
:1014740091428000e68040009142880062c0b3003f
:101484000a00780041430700f04f54000300320083
:1014940030002000990f1000f4ff3a00884e7800c5
:1014a4000044eb007408e2000a00320018c0b300e4
:1014b4007608e2000700320028c0b3007808e20092
:1014c4000400320048c0b3007a08e20001003a0088
:1014d40038c0b300084f78000884fb0040c1b30053
:1014e400db460700880044004287200000b17800f2
:1014f4000045eb000000e0001900320081cf21001c
:101504008c0878001a002000dae7880062c0b30073
:10151400904280005143070008044400498720009a
:10152400888444001904780000c0eb00005498003b
:1015340072805700b64607007fb097008fb89700b7
:10154400008cbe00190078009d4678002d5098004c
:101554008000eb0061009800e0b521001010a000ad
:101564000a4078004f0778004f06be004f05be00c2
:101574004f04be006f00b1000000060091428000dd
:10158400e68040009142880062c0b30080cf210011
:10159400fe42070018c0b300a9cf21000985e90065
:1015a400bbff370091428000e680400091428800f2
:1015b40062c0b30080cf2100f442070018c0b3001a
:1015c40089cf21006bc0b3009aff370080407800b8
:1015d400d0082000e2cf50000f00320007003e0088
:1015e400d04321000104e0000b003200d03520007c
:1015f400e1cf500007003a000700370050012000f7
:10160400e3cf50000400320010002000e4cf50006b
:10161400010032000000eb0000000600889fbe00bd
:101624008a9fbe008c9fbe008004780081067800eb
:10163400020678005008f8005208f9000044eb0054
:101644001ac0b3008845780062c0b300914280009c
:1016540080cf2100cd4207008a407800c0e7800097
:10166400890f5000040032000844e80060002000a4
:101674005228b4008b407800ef4f540003003e0022
:101684000104e000f0ff320003003700014078005d
:101694000104e00006003200e0e78000800e7800dc
:1016a400d0e78000004e7800014078000200370047
:1016b40031c0b300014e78004f06be004f05be0096
:1016c4004f04be0000000600889fbe008a9fbe0033
:1016d4008c9fbe0083057800238720006883410027
:1016e4000045eb0018c0b300d30278000500e00009
:1016f400090032000004e0000a003200e54b9000cb
:1017040081cf530007003a00c5029000828f520037
:1017140004003a0002003700084578000100370051
:1017240008457800868f5100efff3a000a407800a0
:1017340089c0b3000404e00001003d0009c1b30006
:101744000004e0001b0032005008f8005208f900c1
:101754000045eb000904e000160032000a4478005a
:101764001dc0b300accf210062c0b3009142800021
:1017740080cf210085420700c0e780008b0f500016
:1017840004003200300020009c0f100004003a00d6
:10179400020037000d457800010037000d45780040
:1017a4000844e800600020005228b40088cf5400a8
:1017b400edff3e000a4078004f06be004f05be0014
:1017c4004f04be0000000600889fbe000004be0057
:1017d40010c0b3000204e0000a0032000040eb0035
:1017e400890f5400070031000240e90077ff070029
:1017f4000804400010c0b300890f540001003e00eb
:101804000040eb004f04be0000000600889fbe00ad
:101814008a9fbe008c1f7800004678000004eb000d
:101824008044eb00eacd2100eb8521005142800089
:10183400810044007142880022c1b30060cd2100c0
:10184400524207001a0078009b0f50000b003a0028
:101854000c86fb000c86e8000c064600e0b521006f
:1018640060007e008984fb00890440007950900068
:101874000004a100f0549800040037008944e800f3
:1018840072044400f9cf5400e8ff3a004f06780090
:101894004f05be004f04be00000006007248ec0075
:1018a40072e8b70002003a0010c0b30072e8b70053
:1018b40072c8bf0000000600889fbe008a1f78001f
:1018c4009ea8a90020ce21000008eb00301078006b
:1018d4004a08f8004e08f9000044eb0029c1b3009f
:1018e4006c055000094178008a007800704280003d
:1018f4005a4207000844e800200120004e28b400a2
:10190400f94f5400f7ff3a000040eb00a1ce21004c
:101914008048780092c1b3008100e80082487800d2
:10192400e9804000804878008100e8008048780021
:101934000100e8001000a100ed805000c0532a000f
:101944008008780002c1b30060428000434207006f
:101954004f0578004f04be0000000600889fbe00bb
:101964008a1f780030002000d0e788000080eb0058
:10197400c0e788005008f8005208f90008c1b30015
:1019840069c0b3008acf2100094178008a00780039
:101994009042800031420700600020005228b400c9
:1019a4000844e900f8ff3a004f0578004f04be00f0
:1019b4000000060060852100904078000040eb00a4
:1019c4000104e00006003200608521000148e900be
:1019d4008080e80011017800124078008208e80055
:1019e400000006000600fa00889fbe008a9fbe0021
:1019f4008c9fbe000044780001457800b0db800075
:101a04000000e0000c00320060b7210019c0b300f0
:101a1400030037008944e800e6cf54004501320052
:101a24005000e000fbff3a0040002000e6cf5400e5
:101a340002003a00400137008044eb008984fb0037
:101a4400c0c0b30082450700800078006c80440069
:101a540000004000e2b52100013178004000200080
:101a64000100e000340132000804e0005e003200ae
:101a7400b0df8000a00098006c80440000004000ab
:101a8400820078006101780033c38000330198003c
:101a94006101780074c8b300a58920001542420092
:101aa400b389200093417800834152002341980078
:101ab4006100780020409000654507000000e000c8
:101ac40009003a00ec84440089844400e8b521000c
:101ad40068807c006145070009044400000ceb00a9
:101ae4004000200014013700ec8044008180400055
:101af400e2b52100e2807800800878000a85fb00c6
:101b04004655dd00000178000a34a0000a59780027
:101b1400718521009140780001d94000618621003f
:101b2400115978008100e8001159780061bf210043
:101b3400115978008100e80011597800e1852100ed
:101b4400114678000c597800f28040001159780051
:101b5400b189200091407800e3c7b30083cf5000df
:101b64000c003e0068004000848721008140e800aa
:101b7400b6892000014b78008180fb0064d878008e
:101b840000017800b18920009140780083cf500093
:101b9400f6ff36009ac8bf008040e9000142780091
:101ba400a3892000844978000004e0005800320032
:101bb4000200780084872100824050008180fb006d
:101bc40064d87800a1892000914078008141e9001f
:101bd40003437800a5892000864a78000104e000c8
:101be400f5ff3a004a003700828521001200780090
:101bf40064025000f3c28000a30098006c8044008b
:101c040000004000e1b52100e10278000402e9008f
:101c1400040978008401780023437800f642980090
:101c2400e10278000309780093417800e3429800c8
:101c3400630952008281e90013427800684142003e
:101c440082497800e1017800a2419800610078009f
:101c540020409000fe440700000478000800e000e3
:101c640009003a00ec84440089844400e8b521006a
:101c740068807c00f944070009044400000ceb0070
:101c840040002000ac0037006c804400000040009d
:101c9400e1b52100610078000808780045ff0700dd
:101ca400f043b2000a85fb004655dd000a4c700083
:101cb40040ff0700006c78003eff0700006c7800ce
:101cc4003cff0700006c78003aff0700006c7800c6
:101cd40038ff0700006c780036ff07000046e90073
:101ce4000c6c780033ff0700006c780060852100dd
:101cf4001004e000060032000804e8000005780043
:101d04002cff0700005c78001a04e000fcff3a0096
:101d1400ec8544008b854500eab521006a847d008a
:101d240070805700ba4407000fb897009fb8970017
:101d340040049800510498006a807d0030009000af
:101d440071815700f28057009efd07000004e000f7
:101d54000a003a000a04be0068807c001000780083
:101d6400be44070068807c00bc44070009044400aa
:101d7400000ceb00400020006f0037009e08a90013
:101d8400f0c7b3009be8b7009a68ef00efe897004c
:101d94000180fb00000040004187200061047800be
:101da400e0c0b300aa440700600498000000e0000b
:101db4001e003a0010002000d0e7880062c0b30083
:101dc40081cf2100904280002441070048872000f1
:101dd4006fe997000280fb00000040006800780073
:101de4009e440700efe997000380fb0000004000d9
:101df400000444000005eb000a0c7800ec84440065
:101e040089844400e8b5210068807c0010007800d3
:101e14009244070068807c00904407000904440051
:101e24000a0c780040002000430037004d87200052
:101e34006fea97008480fb0081804000ed80780089
:101e440052b7210092427800e54898006bbf210008
:101e54001b037800c60098000045eb00fa48980080
:101e6400110a9000f38f2f008301620003a0a000e9
:101e740003b0a1009308980011c0b3000148780092
:101e84000004780000c8b300006c780012407800a9
:101e9400006c78000049e800ec8444008984440024
:101ea40077005100e0807c00e1409000016c7800f4
:101eb40060807c0070409000006c78000a6c7800b0
:101ec40076fe0700006c7800080078000c68780043
:101ed4008b00e800116878001b68780000e8eb00cc
:101ee400c1cfb300016878000a68780091c0b300dc
:101ef400114098007080570045440700efe89700b0
:101f04000180fb00000040006d007800d21f2c000f
:101f1400f3ff2f000fba97009fba97000401410006
:101f240085814900220098003300980010002000a9
:101f340001003700400020004f06be004f05be00e0
:101f44004f04be000080fa0000000600889fbe0017
:101f54008a9fbe00800578004a08f8004e08f90000
:101f64000044eb0049ce21000a20200022c1b30026
:101f74007142800060cd2100844007001900650093
:101f8400060032008200200061cd21000b007800a1
:101f9400c8fb07000000e000050032000844e80028
:101fa400200120004e28b400f94f5400efff3a00fe
:101fb400084078004f05be004f04be000000060034
:101fc400889fbe008a9fbe00000578004a08f8007a
:101fd4004e08f9000044eb0049ce2100e685540088
:101fe40022c1b3007142800060cd21006740070028
:101ff4000020200019006000020032009b0f150031
:10200400050032000844e800200120004e28b400f6
:10201400f94f5400f2ff3a00084078004f05be0023
:102024004f04be0000000600889fbe008a9fbe00c9
:102034008c9fbe008e1f7800000678000107780090
:102044004a08f8004e08f9000044eb0069cd21006d
:102054006e8544000b202000e886440022c1b300b2
:102064007142800009007800484007001a8065002a
:10207400050032009d0f160003003a0000ce210037
:10208400900f1700050032000844e80020012000ea
:102094004e28b400f94f5400f0ff3a00084078008d
:1020a4004f0778004f06be004f05be004f04be0028
:1020b400000006000800fa00e8805700228a280081
:1020c40007000900b258780082002000e880570019
:1020d40078fb070000f0a7000000ea000000e90018
:1020e4004f00de000080fa0000000600889fbe005a
:1020f4008a9fbe008c1f78004a08f8004e08f90039
:102104000044eb0049ce21000a0c20000986e900b6
:10211400abce210022c1b3007142800060cd21000a
:102124001a400700190078000098a3000d0032003f
:102134000a00600001042000810f500009003200f1
:102144000000e00007003200000eeb003c167800af
:102154009b4de90022c1b30061cd21007042800093
:102164003e4007000844e800200120004e28b40047
:10217400f94f5400e7ff3a0002c1b30081ce2100b9
:1021840060428000354007004f0678004f05be00ce
:102194004f04be00000006009e08a80023c0b30040
:1021a400c28521000349780042bf21001202780051
:1021b400d4c28800b4df8000f4c28800d485210032
:1021c400034a78001201780072c3880030c3880083
:1021d40002bf21001241780082487800f3004200d7
:1021e40082487800f78050008048eb00e10f4000ff
:1021f4000b0032008100e9001180a00070ff07008d
:10220400f94f5000060032000010200041ce21009a
:102214001100600002003a008085210010a0a00097
:1022240011c0b30080852100014878000000060039
:102234000200fa00889fbe008a9fbe0082047800d4
:10224400804578004805de00e4cf500013003200da
:102254008180fb00818040004087200060807800fe
:102264002050900062c0b3000440bc008342800050
:10227400830041009142880062c0b30080cf2100f6
:10228400c23f0700a0cf21000008eb0062c0b300ea
:102294008080e90090428000f03f07009ac8bf00a8
:1022a4008080fb008887210022c0b30002f47800fc
:1022b4000040e8008080fb001941900002f478009f
:1022c4000040e8008080fb002941900002f478007f
:1022d4000040e8008080fb000bf478000040e80038
:1022e4008080fb000af478000040e8008080fb0056
:1022f4004941900002f478000040e8008080fb002f
:102304005941900002f478000040e8008080fb000e
:10231400e944900009f478000040e8009ae8b70026
:10232400b9892000994478005cfd07008980fb008e
:1023340000f478000940e9008080fb00a2c0b300eb
:1023440002f478000040e9008080fb0072bf2100a5
:102354001241780002f478000040e9008080fb001c
:1023640062bf21001241780002f478000040e900c5
:102374008080fb000af478000040e9008080fb00c4
:102384000bf478000040e9008080fb000041eb0082
:1023940002f478000040e9008080fb0092c0b300a2
:1023a40002f478000040e9009be8b700ea80570097
:1023b400f0c2800078ff07004f05be004f04be0046
:1023c4000080fa0000000600e4874700889fbe00f2
:1023d4008a9fbe008c9fbe008e1f78000006780086
:1023e40081bf9f004a08f8004e08f90098c1b30065
:1023f40049ce21000a2c20000b242000e68654003c
:10240400cece210022c1b3007142800060cd2100f4
:102414005e3f0700190065008b0f50000d003a0065
:102424009d0f5600060032001e41e8008c00780023
:102434001d007800e4fc07000004e0000500320001
:10244400f1e680000fb897000108780010c0b300cf
:1024540009003700200120004e28b4000844e90098
:10246400e8ff3a000a00370071df80000fb89700d8
:102474000108780010c0b3004f0778004f06be0073
:102484004f05be004f04be004f00b100000006001f
:10249400c0ce2100104178008c007800b0df8000ad
:1024a400c9fc07000004e000efff32000040eb002d
:1024b400f1ff37000200fa00889fbe008a9fbe0029
:1024c4008045780001047800024578008304780090
:1024d40008007800bafe0700f94f50000b003200e4
:1024e400000c200041ce21001100600001042000f6
:1024f400810f5000020032000000e00003003a00a7
:10250400880c78000000eb002800370004c8b300f2
:1025140088017800b2df80008040eb000140780041
:1025240069fc07000004e00016003200e24f550089
:1025340004003a0011c0b3000b40780029fd0700e5
:102544001a0037006a8157000800be0033fc0700f8
:102554000004e000050032000000eb00eff09700fb
:102564000104e00007003a0010003700e14f550075
:1025740004003a0011c0b3000b40780019fd0700b5
:102584000a0037000800be008fff07008040780073
:102594000000eb000104e00004003a0011cdb30098
:1025a4006085210001487800200020004f05be000e
:1025b4004f04be000080fa00000006000004e000a2
:1025c4002a003200d0bd21000048eb0011c2b30044
:1025d4000000e80001487800c0ce210010407800d7
:1025e400310020008100dd00f2bd210001497800a6
:1025f40042cf210033c1b30092cf11001b003e0033
:102604006a01510083c1b30092cf110017003e004c
:1026140002802000e3b521001301610005003a00a7
:10262400e44f500003003e00f0bd21000174a000ff
:1026340001487800c0ce210041c0b30090cf100003
:102644000a003e006900400053c0b30090cf11005f
:1026540006003e0000002100e1b5210011006000e9
:1026640002003a00f0bd21001024a0000000060082
:1026740021e7800001007800000cb2000204200071
:10268400820f50000a003a0040cf21001048e900b0
:102694000103b200f08f500002003a000000e8008d
:1026a4001048e90010c0b300c4ff0700050037005c
:1026b4000000e00003003a0091c1b300b0ce210055
:1026c4000148780020ce21000008eb00301078008b
:1026d40022c1b300ec00500070428000df3e0700ce
:1026e400a0ce21001048e90002c1b3008080e900b7
:1026f40060428000d93e070000000600e08521000a
:102704001001be00b2e68800c3e6880020019000f4
:10271400b0019000d2e68800e3e68800a3df8000e1
:1027240003e7880060ce210000c8eb00608521002b
:1027340010007800620060000f003a0040ce2100d3
:10274400f1fc2f00908060000150a0000108780087
:1027540000cf210090007800f1e688008100e800b5
:1027640001087800e28f400017003a00e0b521002c
:1027740010b0a0001400370040ce2100f1fc2f005f
:10278400908060000140a0000108780020cf210063
:1027940010017800f2e68800e30040009148e80068
:1027a40072e7800090004100010878006611b900ca
:1027b40060bf210010014100828f500002003600ea
:1027c400e0b5210010c0a00040ce2100b1c28000bd
:1027d400c508dd000110b200100178000280a100dc
:1027e40082807000f2f32f00828060000124b30025
:1027f4000108780022c1b300ee005000704280004e
:10280400963e070040cf21001048e8006a005000bf
:102814001048e80002c1b3008080e90060428000f3
:102824008e3e070010c0b30064ff070000000600de
:10283400889fbe008a9fbe008c1f78008044780069
:102844003008800072e8b7009e68ef00e0b5210010
:10285400100178000008eb0030107800010022001d
:10286400810061001001780002d0a100010871000c
:10287400b0b02100c2042000000141008040eb0000
:10288400014878000080e800820f5000fcff3a0005
:102894000904e00004003a00e0dc80000000e000ed
:1028a40001003200ed410700c0b921000008eb002f
:1028b40068fc2f00000444006e0544008005eb0012
:1028c4000904e00007003a00180078000000e00066
:1028d4000400320010007800e0410700180078007e
:1028e400de4107000b1c78008a0f5400f4ff3a0005
:1028f40068b721006c0544008005eb000904e00082
:1029040007003a00180078000000e00004003200dc
:1029140010007800d141070018007800cf4107006b
:102924000b1c78008a0f5400f4ff3a0048872000fb
:10293400680544008005eb000904e00004003a0047
:10294400180078000000e00001003200c3410700d5
:102954000b1c78008a0f5400f7ff3a00fffb0700b6
:102964004f0678004f05be004f04be00000006006d
:102974002f03b000889fbe008a9fbe008c9fbe00bc
:102984008e1f780000047800a0fd2f000f00400087
:102994009f4107005fa89700efa89700f0b79f003a
:1029a40081bf9f00e0b52100100078006400600042
:1029b4001100320000b721007fb297008fba970050
:1029c40030015200a0815a00640040001082fb00d4
:1029d4008002eb0040422f000020b800800f51001d
:1029e400818f590004003600c0bd21001000a100f1
:1029f400e0b521001020a1000800e0007a043a00ac
:102a04000000eb009e08ab0032123a00e0b5210052
:102a14001000780061006000470132000cb621000c
:102a24008006eb00ddb79f000c86e800ecb79f0042
:102a34001c0578000a00e0002c0132007fb09700ea
:102a44008fb89700b0b79f00c1b79f001a0c9000d1
:102a5400aa0c900008045000898458000800be00a5
:102a64006cf7070002a02b00b375240067f707007a
:102a74000000e000080034001a00780077410700e5
:102a8400efb1970013007800744107006fb297000c
:102a9400000aeb0015013700ba0890000158a300a2
:102aa40012013a000e20a1000e10a100ca4d9000a0
:102ab400f9cf550050003200e1cf450017003a002d
:102ac4007a0090008a0890003fb39700cfb3970034
:102ad4000000530081805b00377e2500870f500083
:102ae400e08f5800400036000080eb00a0a79f0054
:102af4000e20a0000e10a000a0fd2f000f0040002b
:102b0400434107005fa89700efa89700100d9800b5
:102b1400210d98008045eb00330037006fb4970017
:102b24000b40780022c1b3000440bc005042800036
:102b3400800041007142880022c1b30060cd2100b1
:102b4400923d070041ce2100110078000098a300b7
:102b540005003a000b80fb00180040008040eb00a9
:102b6400715098001b0037009800780041019000d4
:102b7400e40f410009003200e30f410002003a0073
:102b84000088a30005003200e3cd21001301780082
:102b9400b1019000830f510005003a000b80fb0047
:102ba400808040000040eb00f0509800090037009e
:102bb4000088a30007003a00a2a79f000e20a000ef
:102bc4000b80fb0080804000715090000004a10045
:102bd400f05098008b45e8000e28a30002003a004c
:102be400f8cf5500ceff3600efb2970015007800fd
:102bf4004b489800330037000e00a0006685210082
:102c0400004beb00ba0990000000eb0012c0b300c7
:102c14000388a300040032000a0037000241e800e0
:102c2400f94f5100250032000000e8008001450002
:102c3400f35190000308a300f8ff3200f94f51004c
:102c44001e00320000cfb30067852100804b78005e
:102c5400ef8060001900320030422f000100200094
:102c6400800f5400818f5c00130036000e00a10019
:102c74000080eb00a0a79f000e20a0003a0890005f
:102c8400ef404000ef80600002ff2f000200600070
:102c940000807000300d9800a0fd2f000f00400050
:102ca400db4007005fa99700efa99700120d980079
:102cb400230d9800010037000e00a1000e08a300a8
:102cc40025003a000e4078000e0278000428a30084
:102cd40086003200dfb4970068c2b3000018a30076
:102ce4002d0032000980e80000004000e1b5210019
:102cf40061007800b000900060bf2100908f500008
:102d040025003a00b0b021000044eb001004e000bc
:102d140006003a00200037000844e8000080e8007c
:102d2400814f540004003a0008003700d0b021005d
:102d340018c0b30061c2b3001004e000f6ff3a000b
:102d440060c2b300804f540013003a0011cfb300a7
:102d54006085210001487800dfb297000580e80013
:102d640000004000e1b521006100780001872100e6
:102d74003043900086487800b00890000150a000cd
:102d8400310898000000eb000148a3005111320003
:102d9400400320004f113700b18920009140780092
:102da4000980e80000004000e2b5210062017800db
:102db4008181fb0080872100b243900007f07900f5
:102dc4008140e9008181fb004242900004f07900d7
:102dd4008140e9008181fb00f242900005f0790016
:102de4008140e9008181fb006243900006f0790094
:102df4008140e9008181fb00924b900007f079004b
:102e04008140e9008181fb00024a900004f07900ce
:102e14008140e9008181fb00a24a900005f079001d
:102e24008140e9008181fb00324b900006f079007b
:102e34008140e900014078009be8b7008040eb0046
:102e4400a1c79f0012027800224090000004e00015
:102e5400100032000400780085872100a189200039
:102e6400914078008181fb003043780086f279003c
:102e74008140e80081417800a7892000834b7800d5
:102e840084405000a1c79f00a241900081cf51000f
:102e9400f2ff3e0021fc2f008f8040002fa09700fe
:102ea400bdfc07000001200061c2b300814f540043
:102eb400081132000884fb0008044400a0b021007b
:102ec4002fc2970004707c008984e8008984440040
:102ed400e0b52100e0807c00b0b02100b14090005a
:102ee40001707c0000012000fa1037008d06e80014
:102ef400e78f5600cbfe3a0010db80000000e000b4
:102f0400050032000c0037000040e800e74f500095
:102f140003003a000600370021b6210010c0b300b8
:102f24005100e000f8ff3200e74f500002003a0081
:102f3400e0b521001000a100e0b5210010007800e8
:102f440062006000f60132007fb297008fba9700ea
:102f540028872000880178008000eb002ce0230003
:102f64000d002000080078000404be0080057800ed
:102f740001057800530078000000e0006000320092
:102f8400600190000200e0005d003200900a9000b1
:102f940005b8a30008003a0020039000b003900095
:102fa4000603540087835c008c0f53008d8f5b00f5
:102fb400530036000b00370020039000b00390004c
:102fc4000603540087835c0074fc2a00050020007b
:102fd400840f5300858f5b0049003600820178001e
:102fe40001003700820178008042eb00a5c79f00f2
:102ff400830378006683410085872100a18920002e
:10300400914078000182fb003244780088727a0093
:103014008140e80001447800a4892000084a78002f
:1030240087405100a1c79f00860f5100f3ff3a006b
:10303400e68141000041eb00a2c79f008240780076
:1030440085872100b2892000124178000282fb00aa
:103054003343780086727a000241e9000244780022
:10306400b7892000884b78008140e800a1c79f0001
:10307400e8cf5000f3ff3a009008900001b0a1009f
:103084004809de0067414100670161004811dd0025
:10309400f38f2f0083806000810071001108980075
:1030a4007fb197008fb997002200980033009800f1
:1030b4000a00450041872000610078001009900053
:1030c400017020008100610007003a006000900058
:1030d400e23f07000a0545004087200060007d00ac
:1030e4008000eb006100980021fc2f008f804000dd
:1030f4000080eb0028fc0700000120007510370059
:103104008100e800e48f500099ff3a000b04780036
:10311400ab8720008c9628009d002000aecf2100b4
:103124000884e80088047800180078000000e000b3
:10313400210032007fb297008fba9700300152000d
:10314400a0815a008c0f51008d8f59001a0036004f
:103154002050900062c0b3000440bc008142800053
:10316400810041009142880062c0b30080cf2100f9
:10317400063c0700150020009e8f120006003a004e
:1031840020002000000f780062c0b30081cf21002e
:1031940090428000313c07001900780060009000e4
:1031a4000000e00001003200ac3f07001900780085
:1031b400aa3f0700800ceb008b0f5400d8ff3a00a5
:1031c4000043eb00a6c79f0006407800e8b5210045
:1031d4000080fb006c0040000000400068007800a4
:1031e4000000e0000c0132003000900062fc2f006f
:1031f4000f01410041fc2f008f80400007f90700b8
:103204000004e000850032006fc097000004e00075
:1032140076003a00afc397000780fb006c004000c3
:1032240000004000e1b52100e1017800a300900016
:103234000044eb0060bf2100908f50002d003a0045
:10324400b0b021001004e00006003a002900370065
:103254000844e8000080e800814f540004003a006c
:1032640008003700d0b0210018c0b30061c2b30019
:103274001004e000f6ff3a0060c2b300804f54002f
:103284001c003a009300780000872100f140900070
:103294000148780011cfb3007a005000014878004b
:1032a400130078006d3f07002fc497000880fb00cf
:1032b4006c00400000004000e8b521006800780080
:1032c400663f0700afc097000180fb006c00400020
:1032d4000000400000044400000ceb009e08a9001c
:1032e400f0c7b3009be8b7009a68ef0040032000e2
:1032f400f80f3700130278000040eb00b0c79f00be
:10330400234090000004e000100032000400780024
:1033140085872100a1892000914078000181fb006c
:1033240030437800867279008140e80001417800da
:10333400a7892000824b780084405000b1c79f00c9
:1033440023419000814f5100f2ff3e0031fc2f00d9
:103354008f8040002fa097008ffb0700afc197001c
:103364000380fb006c00400000004000e1b5210038
:10337400610078002001900061bf2100910f51008d
:1033840009003a000884fb0008044400a1b02100ad
:103394003fc2970084707c00100178008100e8002f
:1033a4007241900082707c00100078002b3f07006f
:1033b400afc297000580fb006c0040000000400095
:1033c400e8b5210068007800243f07002fc3970068
:1033d4000680fb006c004000000040000004440034
:1033e400000ceb0000012000ba0f3700e24f500040
:1033f40089003a00afc397000780fb006c004000cf
:1034040000004000e1b5210061007800a0009000b8
:1034140060bf2100908f500020003a002fc4970015
:103424000880fb006c00400000004000e8b521006b
:103434006800780010017800018721007241900033
:1034440082487800fa8050008048eb001000780031
:10345400023f0700afc097000180fb006c004000f2
:103464000000400068007800fc3e07002fc1970070
:103474000280fb006c004000000040000004440097
:10348400000ceb009e08a900f0c7b3009be8b7004e
:103494009a68ef00400320008e0f3700b88920009f
:1034a40018447800fdf807008880fb00828721001b
:1034b40000f178008841e9000380fb00a1c0b3005b
:1034c400017178008341e9000380fb0071bf210092
:1034d400117178008341e9000380fb0061bf210082
:1034e400117178008341e90021fc2f008f80400096
:1034f4003180fb006c00400000004000e8b5210072
:10350400680078000382fb00d042900005717a00c5
:103514008341e9000382fb004043900006717a0076
:103524008341e9008382fb000042eb0004f17a004e
:103534008341e9008382fb0096c0b30006f17a0060
:103544008341e90083427800b7892000854b7800e5
:10355400a3892000934178008382fb0036c0b30026
:1035640006f17a008341e8008382fb0004f17a00cb
:103574008341e8000382fb006043900006717a00f7
:103584008341e8000382fb00f043900007717a0056
:103594008341e80003427800a289200004497800ae
:1035a40020009000fcfa0700afc297000580fb00e2
:1035b4006c004000000040006800780010007800b3
:1035c400a63e07002fc397000680fb006c00400056
:1035d40000004000680078000005eb000a0878004d
:1035e400afc397000780fb006c0040000000400060
:1035f40068007800993e0700afc097000180fb0087
:103604006c00400000004000000444000a0c7800f4
:10361400000120002f0f37002fc197000240e8005f
:10362400a0c79f00e54f5000e9fe36008041eb0043
:10363400a3c79f005008f8005208f90088cf210062
:103644000885e80062c0b300914280000800780059
:10365400ce3a0700240020009a0f12000c003a0012
:1036640030002000d0e7880081cf21008088eb0063
:1036740062c0b30090428000f83a070021c0b30052
:10368400608521000148780030072000110f3700c1
:10369400afc297008540e800a1c79f0060002000ea
:1036a4005228b400efcf5000e6ff36000043eb0091
:1036b400a6c79f00b0db80000000e000340f32009a
:1036c400170037000040e800e64f500006003200c3
:1036d400004178005100e000faff3200a2c79f00c9
:1036e400e64f50000e003a008043eb00a7c79f004e
:1036f4007408e2001e0f32000900370040c0b30016
:10370400a0c79f00e0b521001010a10004003700fd
:1037140010c0b3000100370020c0b300a0c79f0051
:10372400f1da80000100e00010003d0040bb210000
:103734007fb297008fba970030015200a0815a00df
:1037440005802700850f5100e08f590007003600df
:10375400a1ccb30060852100014878000080eb0013
:10376400e0c28800a0032000da0e37000178a3002d
:1037740014003200e0b521001070a10021af210037
:1037840060852100114878008100e8000000e8000d
:1037940011487800d6d78000f6c288006f00400038
:1037a400ef8040003118780021107800210190004a
:1037b400b10190002200980033009800c00420005a
:1037c400c40e37000000eb000138a300c10e320024
:1037d4000168a30007003200e0b521001060a100d9
:1037e40011c0b30060852100014878004002200028
:1037f400b80e37000000eb000158a300b50e3a00e4
:1038040050ba210093c1b30090cf11007700320069
:103814000042eb00a4c79f000004780049ce2100b9
:103824001880fb007200b9004a08b4007042880096
:1038340022c1b3008000780060cd2100533a070014
:10384400012c20009980600000242000808f50000b
:1038540002003200184ce8000200370010c0b30028
:10386400a0c79f0018407800f84f500004003e00a5
:10387400afc297000504e000e9ff320003003700ff
:103884002fc397000604e0006000320051ba210003
:103894008048e800b889200018447800e1cd210070
:1038a4006882500008407800838721000081fb0073
:1038b400c1437800877179000040e900848f50008b
:1038c400faff3a00e844540080c0b300a0c79f0048
:1038d400b089200009487800f0f707008984fb00cc
:1038e4008187210080f07c00694054000080fb0047
:1038f40012c0b300827078006a4054000080fb005c
:1039040072bf2100927078006b4054000080fb006d
:1039140062bf2100927078006c4054000080fb006c
:10392400f2cd2100927078006d4054000080fb00bd
:10393400e2cd2100927078006e4054000080fb00bc
:103944000041eb00827078006f4054000080fb005f
:103954000001e800e14179000334a000837079009c
:1039640092c0b3008270780070445400884178009b
:10397400b2892000034978009ac8bf000081fb0087
:1039840043c0b300837079000040e80001c4b30071
:10399400a1c79f00f1da80000198a3000200320061
:1039a40002ccb300a2c79f0001d8a30003003a00d1
:1039b4002fc297000454a000a4c79f008080fb007e
:1039c40082872100afc2970005f178000040e8002b
:1039d4009ae8b70021fc2f008f804000f0e68000b9
:1039e400edf90700000120003a0e3700e0b5210090
:1039f4001090a10040cf21000048eb0002c1b300a9
:103a0400ec00500060428000143a070000202000bf
:103a1400e1b5210011006000340e320040cf2100d6
:103a24001004e00010003200800420000100400077
:103a34007fb397008fbb970030025300a0825b00d6
:103a440072e780008001eb006710b900f62f2500b3
:103a54000611b800830140000000eb00820f520001
:103a6400838f5a001b0e3600e0b521001060a000c1
:103a740067c52100288a280007000900b85b780080
:103a8400b889200018447800e1c5210068825000fc
:103a940008407800838721000081fb00c142780040
:103aa400857179000040e900848f5000faff3a00e4
:103ab400e844540080c0b300a0c79f00b68920002a
:103ac400094b780075f707008984fb008187210082
:103ad40080f07c00694054000080fb0012c0b300f9
:103ae400827078006a4054000080fb0072bf21009d
:103af400927078006b4054000080fb0062bf21008c
:103b0400927078006c4054000080fb0000c1eb0010
:103b1400827078006d4054000080fb00c2cfb30077
:103b2400827078006e4154000281fb000040eb007b
:103b3400807079006f4154000281fb008201e8002b
:103b440061c279000444a00084f0790093c0b300fa
:103b5400837079007044540088417800b289200051
:103b640003497800a2892000124178008281fb0079
:103b740044c0b30084f079000241e8008242780036
:103b8400a4892000054a7800a0c79f00f0da8000cd
:103b94000098a3000700320041cf21001104e00087
:103ba40004003a0000a8a3000200320000c8b300d9
:103bb400a0c79f009ac8bf008080fb0082872100b5
:103bc4002fc3970006f178000040e8009ae8b70098
:103bd40021fc2f008f8040000080eb006ef907006d
:103be40000012000bb0d3700f0fe2f00f1ff2f0075
:103bf40000044400e084480017062000870f5400a6
:103c0400e08f5c00b00d3e000860010061003700e9
:103c1400dc003700ac0d3700ab0d3700aa0d3700c0
:103c240011073700a80d370038073700a60d3700f5
:103c3400a50d370090073700bf073700a20d3700e6
:103c4400a10d3700a00d37009f0d37009e0d3700e2
:103c5400260837009c0d37009b0d370030083700cd
:103c6400990d3700980d3700970d3700730837000a
:103c74007a093700940d3700930d3700920d370001
:103c840088093700900d37008f0d37008e0d3700ef
:103c94008c0937009b0937008b0d37008a0d3700dc
:103ca400890d3700880d3700870d3700860d3700e2
:103cb400850d3700840d3700830d3700820d3700e2
:103cc400810d3700800d37007f0d3700a30a3700c0
:103cd400ee0a3700f20a3700100b3700370b3700b3
:103ce400ef0b3700080c3700b60c3700ba0c37005e
:103cf400750d3700740d3700730d3700720d3700e2
:103d0400710d3700700d37006f0d37006e0d3700e1
:103d14006d0d37006c0d37006b0d37006a0d3700e1
:103d2400690d3700680d3700670d3700660d3700e1
:103d3400650d3700640d3700630d3700620d3700e1
:103d4400610d3700600d37005f0d37005e0d3700e1
:103d54005d0d37005c0d37005b0d37005a0d3700e1
:103d6400590d3700580d3700570d3700560d3700e1
:103d7400550d3700540d3700530d3700520d3700e1
:103d8400510d3700500d37004f0d37004e0d3700e1
:103d9400a40c370000872100904278007a0050007c
:103da400104378000041eb0002407800e3b52100a5
:103db4008083eb0001003700004178000080fb00a5
:103dc400c200dd006102b000e3807800e18f4000b2
:103dd40048003200690240004222dd0004824100b2
:103de4001442900084cf520042003a000604e000de
:103df4003d003200810178008000780003007800e3
:103e0400a2c79f009e08a800e9814000c219dd00f6
:103e1400e8b52100728f210068c97900a3c0b300fe
:103e24000201e9000349780073bf21000201e9009f
:103e3400134978008301e9000201e900134978007d
:103e4400c208dd00720220000101410068417900ce
:103e5400338f2100824978006102b000e8c0780005
:103e64008301e900814978008041eb00148f21002f
:103e7400034a780095c0b3000402e900054a7800bb
:103e840076c7b300b5892000864a780035c0b300f0
:103e940084872100054a78000402e800034a780078
:103ea4008401e800814978008300e80082487800b2
:103eb40042c0b300a7892000824b780021fc2f0068
:103ec4008f804000b4f80700afc197000380fb0067
:103ed4004200dd00000444000080eb003014980030
:103ee40000012000fb0c37004200dd00008041008f
:103ef400371098000240e800e54f5000aeff36004e
:103f04000087210010417800a0b021008040eb0020
:103f1400904f1100230d3a000a0037008140e80059
:103f24000080e80083cf5000e90c3200904f11006c
:103f3400faff3a000000eb0062c2b30082cf5000e7
:103f4400e40c32008180fb0001804000b2b021000b
:103f5400624178000040eb000204e00003003200fc
:103f6400008721000248780040c3b30081804000ec
:103f7400b2b02100810041008048eb000080fb00ca
:103f8400d40c37008bf60700a0ef9f0000427800a6
:103f9400c4ef9f0087f6070000477800eedf9f001c
:103fa40084f60700e0e79f000086fb0081f6070027
:103fb400c0e79f00004378004830dd000c06700025
:103fc4007cf60700e0ef9f000085fb0079f6070010
:103fd400804478004848dd000a05700075f6070043
:103fe400a0e79f0073f60700804678008ee79f00e5
:103ff4000e0478000838a3000c0032000040eb00e7
:10400400a0c79f00004478004bbd210069f607005b
:104014000884fb0080757c00afc097000144e80071
:10402400a8c79f00e74f5400f8ff36000fe1970040
:104034000248a3000c0032008041eb00a3c79f009c
:1040440003447800cbbc21005af607000884fb0027
:1040540080757c002fc297000444e800a8c79f0025
:10406400e74f5400f8ff360030c38000e10f4000f2
:10407400a50c32000c047800e50f4600da02360085
:104084008042eb00a5c79f002fc297008a027800e8
:1040940002b621000040eb00010037000042780026
:1040a400d20078000100e0000b003200b101900062
:1040b400838f520008003a00b14090008dcf500029
:1040c40005003a00a4c79f00d0f507001f18070099
:1040d4000000eb007f0c37000040e800e74f500081
:1040e400eeff3a00a0c79f004feb970063406300c8
:1040f400e14f500052023a002ef60700a0c79f007d
:10410400e14f5000a1013a0000102000e1b5210068
:10411400110060004702320060bf2100900f55007b
:1041240003003a00091807000000eb00690c37008f
:1041340010c0b30080cf9f001ef6070090cf9f00f1
:104144001cf60700a0cf9f001af60700c0cf9f00ff
:1041540018f60700d0cf9f0016f6070080447800b9
:104164008940e800e1cf9f001087210010407800cb
:1041740072cdb300824f500002003e008140e8003f
:10418400e1cf9f0031cbb300814f500003003e00cc
:10419400efc897008140e800e1cf9f00f1c8b30069
:1041a400814f500003003e00efc897008140e800b3
:1041b400e1cf9f00b1c6b300814f500003003e0021
:1041c400efc897008140e800e1cf9f0071c4b300bd
:1041d400814f500003003e00efc897008140e80083
:1041e400e1cf9f0031c2b300814f500003003e0075
:1041f4006fc897000040e800e0cf9f001fca9700f7
:10420400efa197000a017800afc8970010c0b3006f
:104214002df507000004e000d100320030c3800017
:10422400e10f4000ce003a000040eb00e0c79f00e1
:10423400afca97000a0278008040780001407800f5
:1042440043872000040037000040e800e44f50009a
:104254000d003200804078000081fb000201410023
:10426400630479000800e000f7ff32006849900019
:10427400854f5100f4ff3a0048019000840f51002b
:10428400f1ff3a00230c3700e0c79f0072fc2f00b7
:104294000f01410061fc2f008f8040006fa0970048
:1042a40048f407000004e0002a003a002600370022
:1042b400f7c28000570098007148980089c05000e8
:1042c400115098006fa09700b1df8000808f5000dc
:1042d400090032003af70700f94f50005700320046
:1042e400010c200040ce21009080600000042000da
:1042f400808f500051003a00941707000000eb0033
:104304009e08ab00f30b3a00efc097000180fb005e
:1043140000004000428720006200780010509000a6
:10432400e0cf9f0082fc2f000f0141000a007800bb
:10433400bff7070000012000e60b370083170700d2
:104344000000eb00e30b3700801707000000eb00d0
:10435400e00b37006fc097000080fb0000004000b6
:1043640041872000610078002fcc970068489800ae
:104374004a009800f1c2800051009800efc89700ed
:1043840071489800500190008a0f510006003200d5
:1043940090099000f28f2f00028161000280a0003a
:1043a400120898000500370090099000f28f2f0042
:1043b400028161000230b3001208980010099000d5
:1043c40002b0a0001208980089c050001150980053
:1043d4006fa09700b1df8000808f50000900320089
:1043e400f7f60700f94f500014003200010c2000ca
:1043f40040ce21009080600000042000808f500097
:104404000e003a00511707000000eb009e08ab00b5
:10441400b00b3a006fc8970089445000e9cf9f0061
:1044240082fc2f000f014100efc097000a007800c2
:104434007ff7070000012000a60b37009e08ab00a1
:10444400d2003a006fc097000080fb0000004000db
:104454004187200061047800680090000000e000bb
:104464000b003a00e0c0b300f93a0700600498007a
:104474006fc097000080fb000000400041872000cf
:1044840061007800600090000000e000310032001c
:104494000fc99700024878009fc997000368780005
:1044a400000478002fca9700046c7800cfca9700e4
:1044b400056c78005fcb9700066c7800efcb970013
:1044c400076c7800f5f40700006c780008007800a9
:1044d4002fe497000868e900c850de0001687800fe
:1044e4000a687800c860de00016878000c6878000b
:1044f400efd89700016878004fe9970012409800c0
:10450400498720006fc097000080fb000000400036
:1045140069047800a0fd2f000f004000bc3a07009a
:104524005faa9700efaa9700240498003504980026
:104534006fc097000080fb00000040006900780015
:1045440010099000f18f2f008100610001a0a000ec
:1045540011089800fd1607000000eb005d0b370002
:10456400f0c2800096f60700f94f500010003200a8
:10457400010c200040ce2100908060000004200047
:10458400808f50000a003a00f0c280008a0f500069
:1045940012003200c0ce21001041e8008a007800e9
:1045a400f0c2800088f407000004e0000b003a0029
:1045b400f1c28000e0be2100908f500070003a00ec
:1045c400c0ce2100104178008a007800b0df80005e
:1045d4007df407000004e00069003a006fa0970032
:1045e400b1df8000808f50000900320074f60700ac
:1045f400f94f500014003200010f200040ce21007a
:104604009080600000062000808f50000e003a0069
:10461400ce1607000000eb009e08ab002d0b3a00fd
:104624006fc8970089445000e9cf9f0082fc2f0097
:104634000f01410041c0b3000a007800fcf60700f6
:1046440000012000230b370041fc2f008f80400025
:104654000c0078005cf707000004e000450032001d
:104664009e08ab0043003a009ac8bf008080fb005c
:10467400888721008fca970005f478000040e8007d
:104684008080fb001fcb970006f478000040e80010
:104694008080fb00afcb970007f478000040e8006f
:1046a4008080fb003fc9970002f478000040e800d6
:1046b4008080fb00cfc9970003f478000040e80035
:1046c4008080fb005fca970004f478000040e80093
:1046d4009ae8b700b9892000994478006ff407007c
:1046e4008980fb0000f478000940e9008080fb0029
:1046f400a2c0b30002f478000040e9008080fb000f
:1047040072bf21001241780002f478000040e900f1
:104714008080fb0062bf21001241780002f478001f
:104724000040e9008080fb004861de0002f478006c
:104734000040e9008080fb000cf478000040e900b0
:104744008080fb000041eb0002f478000040e900a7
:104754008080fb0092c0b30002f478000040e900be
:104764009be8b70021fc2f008f8040002fa097000a
:1047740089f607007516070000012000d50a3700e6
:10478400721607000000eb00d20a3700afc2970090
:10479400e4cf5200a7003a0086f407008044780072
:1047a40060bf2100900f550003003a006716070010
:1047b4000000eb00c70a37002fe39700e14f5300d6
:1047c4006200360070fc2f000f004000bbf20700af
:1047d4000004e0005a0032007fc097008080fb0094
:1047e4008180e80081804000e8b52100e8807800fd
:1047f400310990000240a100b208980003f40700b8
:10480400ffc097008180fb00608521001040780084
:104814008180e80081804000688178002041980010
:1048240068817800cfeb9700374998006881780059
:10483400efd9970023499800688178004c019800cb
:10484400688178003a019800688178002fe2970027
:104854008441e90043419800688178003d41980013
:1048640068847800fa390700000c78000000e00042
:1048740010003a007fc097000080fb000080e80031
:1048840000004000e8b5210068007800f339070013
:104894007fc097000080fb000080e800000040001b
:1048a40000044400000ceb00281607000000eb0095
:1048b400880a37008042eb00a5c79f007fc097009d
:1048c4000080fb000080e80000004000e1b521000a
:1048d400610078001000780041c0b30001487800fe
:1048e40010c0b300a0c79f00608521001004e00041
:1048f40010003200ecb52100800678002fc4970028
:104904007fc097000080fb000080e80000004000aa
:104914006c0078008885fb009085450025f407002d
:10492400804d78000844e800a8c79f001d04e000fb
:10493400f2ff3a00e0b521001000a00003003700a8
:10494400021607000000eb00620a37000a00780034
:104954009bf50700a0c79f00f94f500035003200b7
:1049640043f70700f91507000040eb0061852100bb
:1049740080487800f080400063cd2100b3187800af
:10498400a3107800648141001203be00a6009800c1
:10499400b7009800e8805000b3187800a31078009e
:1049a400a6009800b7009800a0c79f00e8cf210098
:1049b400e8054400a2c0b3000440bc00b14280003a
:1049c40081004100a2c0b30008007800ef35070061
:1049d4009b0f55000a003a000080eb0030e8880085
:1049e400afc297000580fb006a00b9005608b40006
:1049f400a2c0b300e1cf210018360700050037003c
:104a04002fc397000640e800a0c79f00e74f50005f
:104a1400e8ff3600c00320000968a3002d0a3a000d
:104a24006085210007c2b30007c86400d0042000d9
:104a3400280a3700c51507000000eb00250a3700d7
:104a44002fe49700e14f54005e00360070fc2f0005
:104a54000f00400019f207000004e0005600320085
:104a64007fc097008080fb008180e8008180400047
:104a7400e8b52100e8807800310990000240a100e7
:104a8400b208980061f30700ffc097008180fb0023
:104a940060852100104078008180e800818040001a
:104aa400688178002041980068817800cfe99700f8
:104ab40033499800688178006fda97002449980098
:104ac400688178004c019800688178003a01980068
:104ad40068817800afe297008541e900434198007e
:104ae400688178003d41980068847800583907004f
:104af400000c78000000e00010003a007fc097002e
:104b04000080fb000080e80000004000e8b52100c0
:104b140068007800513907007fc097000080fb00cf
:104b24000080e8000000400000044400000ceb009a
:104b3400861507000000eb00e60937000043eb0090
:104b4400a6c79f00cec280006085210090467800f1
:104b54000d04e00012003200e9b5210000067800df
:104b64008a0578002fc497007fc097000080fb005f
:104b74000080e80000004000690078000885fb0020
:104b8400100545008bf30700004d78000844e80049
:104b9400a8c79f001c04e000f2ff3a000b05780050
:104ba400cec28800608521000d487800e0b5210060
:104bb4001000a00003003700641507000000eb009c
:104bc400c409370060bf2100900f550003003a006c
:104bd4005e1507000000eb00be093700fac288002a
:104be40050032000bb093700cfeb970063c063007c
:104bf400e14f50003f023a006ef30700a0c79f0048
:104c0400e64f500057003200e74f500003013a00ce
:104c1400e0b5210010f0a10066f307000084fb005a
:104c240064f307004800dd000804700061f3070026
:104c3400804478004515070040bd21001df507009c
:104c4400804078000000eb000104e000a10932007c
:104c540050be2100bdf40700f94f50001700320088
:104c64000040eb00a0c79f004a08f8004e08f90076
:104c74004bce21000c2c20000d00370022c1b300c4
:104c84007142800060cd2100403507009b00660022
:104c940000202000808f500008003200afc0970031
:104ca4008140e800a1c79f00200120004e28b400e5
:104cb4002fc19700f84f5100f0ff36000904e000bf
:104cc400050032009e68a90060852100094878002b
:104cd400a00320007f093700b8df88002e150700e5
:104ce40040ce2100f1f32f001088600053be210054
:104cf400c4bc210007000900b45978007adf880099
:104d0400c850de0065005000014878000000e9004a
:104d14000a487800e800500066de800077de8000f4
:104d24008688be0082de800093de8000d2e68800a2
:104d3400e3e6880022c1b3007042800047350700d3
:104d4400608521000048eb00e8c28800a3df8000f2
:104d540073c38800e0b521001080a000a0032000e8
:104d64005c09370013f3070061852100804878004f
:104d7400f61407009ac8bf008080fb0073c0b3001c
:104d84008287210003f178000040e8009ae8b70028
:104d9400c0bc21006df40700f94f500020003a0018
:104da40010c0b30070e8b700eef007000004e000a4
:104db400040032002bf10700a0c79f00f94f5000f8
:104dc40015003a00a1892000914078000181fb0080
:104dd40080872100d3cfb300037079008140e800bd
:104de4000181fb0080c1eb00037079008140e80081
:104df4000181fb0023c0b300037079008140e80007
:104e040081427800a4892000054a78007068ef0088
:104e14008045eb001500370038f607007068ef0096
:104e2400a1892000914078000181fb008087210046
:104e3400e3cd2100137079008140e8000181fb007b
:104e4400f3cd2100137079008140e8000181fb005b
:104e54008041eb00037079008140e80081437800d1
:104e6400a6892000074b78001bc0b30068c5210049
:104e7400208a280007000900305c7800b8892000e7
:104e840018447800e1c52100e8815000084078000a
:104e9400828721000082fb00c142780005717a00fc
:104ea4000040e900838f5000faff3a006844540040
:104eb40041bd2100e881500008407800828721002c
:104ec4000082fb004143780006717a000040e9004b
:104ed400838f5000faff3a00e844540080c0b300c6
:104ee400a0c79f00b7892000894b78006bf20700a8
:104ef4008984fb008187210080f07c006940540094
:104f04000080fb0012c0b300827078006a40540035
:104f14000080fb0072bf2100927078006b40540047
:104f24000080fb0062bf2100927078006c41540045
:104f34004850de00804178000281fb0080707900d7
:104f44006d4054000a4178000080fb008a707800ac
:104f54006e4054000080fb0084c1b300847078006c
:104f64006f4054000080fb0094c0b300847078004c
:104f74007044540008427800b189200084487800c5
:104f84000b04e00003003200e0b521001070a00023
:104f940002003700e0b521001070a10068852100ef
:104fa40020af21001848780011c0b3000000e800c9
:104fb40001487800f5e68000d5d788006f004000ee
:104fc40066de800077de80000688be0084de800016
:104fd40095de80002400980035009800c818dd0094
:104fe4000280fb0001007000e043880021fc2f00d8
:104ff4008f80400068f4070018047800ea00640019
:1050040000012000ea8f5000b208320080852100a0
:1050140010a0a00000012000ae08370002102000fc
:10502400e1b52100110161002f013200e14f500070
:105034003ffc3200e34f500067003a009e08ab008b
:1050440029013a00ab8920009b4578000b80fb00c6
:105054008a87210031c0b300017578008b45e800d0
:10506400a58920008b4a780052f207008b80fb0050
:1050740000f578008b45e8000b4078009ae8b7000b
:105084004cf20700a1892000914078000181fb00c7
:10509400007579008140e80081417800a2892000f0
:1050a4000349780043f20700a18920009140780069
:1050b4000181fb00007579008140e800814278009d
:1050c400a4892000054a78002014070060bf21004d
:1050d400900f560003003a009a68ef000000eb00be
:1050e4007c083700b1892000914078000181fb00e1
:1050f400808721000d7079008140e9000181fb0067
:105104002fe397008641e900037079008140e900ac
:105114000181fb00097079008140e9000181fb00f5
:10512400efeb9700077079008140e9000181fb00f3
:105134004fe49700087079008140e9000181fb0089
:10514400efe19700037079008140e9000181fb00e1
:105154000e7079008140e9000181fb002fea97007d
:10516400047079008140e90001437800b58920008a
:10517400864a780072fc2f000f01410041fc2f0089
:105184008f8040000c00780024f107000004e00048
:105194000b003a0041fc2f008f8040000c00780087
:1051a40089f407000004e00005003a009a68ef0063
:1051b400f0c7b3009be8b7000000eb0045083700d8
:1051c40021fc2f008f8040002fa09700f2f30700ee
