:020000040000fa
:080000000002040000000000f2
:020000040000fa
:0400080004030000ed
:020000040000fa
:04000c0004030000e9
:020000040000fa
:0400100004030000e5
:020000040000fa
:0400140004030000e1
:020000040000fa
:0400180004030000dd
:020000040000fa
:04001c0004030000d9
:020000040000fa
:0400200004030000d5
:020000040000fa
:0400240004030000d1
:020000040000fa
:0400280004030000cd
:020000040000fa
:04002c0004030000c9
:020000040000fa
:0400300004030000c5
:020000040000fa
:0400340004030000c1
:020000040000fa
:0400380004030000bd
:020000040000fa
:04003c0004030000b9
:020000040000fa
:0400400004030000b5
:020000040000fa
:0400440004030000b1
:020000040000fa
:0400480004030000ad
:020000040000fa
:04004c0004030000a9
:020000040000fa
:0400500004030000a5
:020000040000fa
:0400540004030000a1
:020000040000fa
:04005800040300009d
:020000040000fa
:04005c000403000099
:020000040000fa
:040060000403000095
:020000040000fa
:040064000403000091
:020000040000fa
:04006800040300008d
:020000040000fa
:04006c000403000089
:020000040000fa
:040070000403000085
:020000040000fa
:040074000403000081
:020000040000fa
:04007800928c000066
:020000040000fa
:04007c000403000079
:020000040000fa
:040080000403000075
:020000040000fa
:040084000403000071
:020000040000fa
:04008800040300006d
:020000040000fa
:04008c000403000069
:020000040000fa
:040090000403000065
:020000040000fa
:040094000403000061
:020000040000fa
:04009800040300005d
:020000040000fa
:04009c000403000059
:020000040000fa
:0400a0009e89000035
:020000040000fa
:0400a4000403000051
:020000040000fa
:0400a800040300004d
:020000040000fa
:0400ac000403000049
:020000040000fa
:0400b0000403000045
:020000040000fa
:0400b4000403000041
:020000040000fa
:0400b800040300003d
:020000040000fa
:0400bc000403000039
:020000040000fa
:0400c0000403000035
:020000040000fa
:0400c4000403000031
:020000040000fa
:0400c800040300002d
:020000040000fa
:0400cc000403000029
:020000040000fa
:0400d0000403000025
:020000040000fa
:0400d4000403000021
:020000040000fa
:0400d800040300001d
:020000040000fa
:0400dc000403000019
:020000040000fa
:0400e0000403000015
:020000040000fa
:0400e4000403000011
:020000040000fa
:0400e800040300000d
:020000040000fa
:0400ec000403000009
:020000040000fa
:0400f0000403000005
:020000040000fa
:0400f4000403000001
:020000040000fa
:0400f80004030000fd
:020000040000fa
:0400fc0004030000f9
:020000040000fa
:0401000004030000f4
:020000040000fa
:0401040004030000f0
:020000040000fa
:0401080004030000ec
:020000040000fa
:04010c0004030000e8
:020000040000fa
:0401100004030000e4
:020000040000fa
:0401140004030000e0
:020000040000fa
:0401180004030000dc
:020000040000fa
:04011c0004030000d8
:020000040000fa
:0401200004030000d4
:020000040000fa
:0401240004030000d0
:020000040000fa
:0401280004030000cc
:020000040000fa
:04012c0004030000c8
:020000040000fa
:0401300004030000c4
:020000040000fa
:0401340004030000c0
:020000040000fa
:0401380004030000bc
:020000040000fa
:04013c0004030000b8
:020000040000fa
:0401400004030000b4
:020000040000fa
:0401440004030000b0
:020000040000fa
:0401480004030000ac
:020000040000fa
:04014c0004030000a8
:020000040000fa
:0401500004030000a4
:020000040000fa
:0401540004030000a0
:020000040000fa
:04015800040300009c
:020000040000fa
:04015c000403000098
:020000040000fa
:040160000403000094
:020000040000fa
:040164000403000090
:020000040000fa
:04016800040300008c
:020000040000fa
:04016c000403000088
:020000040000fa
:040170000403000084
:020000040000fa
:040174000403000080
:020000040000fa
:04017800040300007c
:020000040000fa
:04017c000403000078
:020000040000fa
:040180000403000074
:020000040000fa
:040184000403000070
:020000040000fa
:04018800040300006c
:020000040000fa
:04018c000403000068
:020000040000fa
:040190000403000064
:020000040000fa
:040194000403000060
:020000040000fa
:04019800040300005c
:020000040000fa
:04019c000403000058
:020000040000fa
:0401a0000403000054
:020000040000fa
:0401a4000403000050
:020000040000fa
:0401a800040300004c
:020000040000fa
:0401ac000403000048
:020000040000fa
:0401b0000403000044
:020000040000fa
:0401b4000403000040
:020000040000fa
:0401b800040300003c
:020000040000fa
:0401bc000403000038
:020000040000fa
:0401c0000403000034
:020000040000fa
:0401c4000403000030
:020000040000fa
:0401c800040300002c
:020000040000fa
:0401cc000403000028
:020000040000fa
:0401d0000403000024
:020000040000fa
:0401d4000403000020
:020000040000fa
:0401d800040300001c
:020000040000fa
:0401dc000403000018
:020000040000fa
:0401e0000403000014
:020000040000fa
:0401e4000403000010
:020000040000fa
:0401e800040300000c
:020000040000fa
:0401ec000403000008
:020000040000fa
:0401f0000403000004
:020000040000fa
:0401f4000403000000
:020000040000fa
:0401f80004030000fc
:020000040000fa
:0401fc0004030000f8
:020000040000fa
:0402080004030000eb
:020000040000fa
:04020c0004030000e7
:020000040000fa
:0402100004030000e3
:020000040000fa
:0402140004030000df
:020000040000fa
:0402180004030000db
:020000040000fa
:04021c0004030000d7
:020000040000fa
:0402200004030000d3
:020000040000fa
:0402240004030000cf
:020000040000fa
:0402280004030000cb
:020000040000fa
:04022c0004030000c7
:020000040000fa
:0402300004030000c3
:020000040000fa
:0402340004030000bf
:020000040000fa
:0402380004030000bb
:020000040000fa
:04023c0004030000b7
:020000040000fa
:0402400004030000b3
:020000040000fa
:0402440004030000af
:020000040000fa
:0402480004030000ab
:020000040000fa
:04024c0004030000a7
:020000040000fa
:0402500004030000a3
:020000040000fa
:04025400040300009f
:020000040000fa
:04025800040300009b
:020000040000fa
:04025c000403000097
:020000040000fa
:040260000403000093
:020000040000fa
:04026400040300008f
:020000040000fa
:04026800040300008b
:020000040000fa
:04026c000403000087
:020000040000fa
:040270000403000083
:020000040000fa
:04027400040300007f
:020000040000fa
:04027800040300007b
:020000040000fa
:04027c000403000077
:020000040000fa
:040280000403000073
:020000040000fa
:04028400040300006f
:020000040000fa
:04028800040300006b
:020000040000fa
:04028c000403000067
:020000040000fa
:040290000403000063
:020000040000fa
:04029400040300005f
:020000040000fa
:04029800040300005b
:020000040000fa
:04029c000403000057
:020000040000fa
:0402a0000403000053
:020000040000fa
:0402a400040300004f
:020000040000fa
:0402a800040300004b
:020000040000fa
:0402ac000403000047
:020000040000fa
:0402b0000403000043
:020000040000fa
:0402b400040300003f
:020000040000fa
:0402b800040300003b
:020000040000fa
:0402bc000403000037
:020000040000fa
:0402c0000403000033
:020000040000fa
:0402c400040300002f
:020000040000fa
:0402c800040300002b
:020000040000fa
:0402cc000403000027
:020000040000fa
:0402d0000403000023
:020000040000fa
:0402d400040300001f
:020000040000fa
:0402d800040300001b
:020000040000fa
:0402dc000403000017
:020000040000fa
:0402e0000403000013
:020000040000fa
:0402e400040300000f
:020000040000fa
:0402e800040300000b
:020000040000fa
:0402ec000403000007
:020000040000fa
:0402f0000403000003
:020000040000fa
:0402f40004030000ff
:020000040000fa
:0402f80004030000fb
:020000040000fa
:0402fc0004030000f7
:020000040000fa
:0403000004030000f2
:020000040000fa
:0403040004030000ee
:020000040000fa
:0403080004030000ea
:020000040000fa
:04030c0004030000e6
:020000040000fa
:0403100004030000e2
:020000040000fa
:0403140004030000de
:020000040000fa
:0403180004030000da
:020000040000fa
:04031c0004030000d6
:020000040000fa
:0403200004030000d2
:020000040000fa
:0403240004030000ce
:020000040000fa
:0403280004030000ca
:020000040000fa
:04032c0004030000c6
:020000040000fa
:0403300004030000c2
:020000040000fa
:0403340004030000be
:020000040000fa
:0403380004030000ba
:020000040000fa
:04033c0004030000b6
:020000040000fa
:0403400004030000b2
:020000040000fa
:0403440004030000ae
:020000040000fa
:0403480004030000aa
:020000040000fa
:04034c0004030000a6
:020000040000fa
:0403500004030000a2
:020000040000fa
:04035400040300009e
:020000040000fa
:04035800040300009a
:020000040000fa
:04035c000403000096
:020000040000fa
:040360000403000092
:020000040000fa
:04036400040300008e
:020000040000fa
:04036800040300008a
:020000040000fa
:04036c000403000086
:020000040000fa
:040370000403000082
:020000040000fa
:04037400040300007e
:020000040000fa
:04037800040300007a
:020000040000fa
:04037c000403000076
:020000040000fa
:040380000403000072
:020000040000fa
:04038400040300006e
:020000040000fa
:04038800040300006a
:020000040000fa
:04038c000403000066
:020000040000fa
:040390000403000062
:020000040000fa
:04039400040300005e
:020000040000fa
:04039800040300005a
:020000040000fa
:04039c000403000056
:020000040000fa
:0403a0000403000052
:020000040000fa
:0403a400040300004e
:020000040000fa
:0403a800040300004a
:020000040000fa
:0403ac000403000046
:020000040000fa
:0403b0000403000042
:020000040000fa
:0403b400040300003e
:020000040000fa
:0403b800040300003a
:020000040000fa
:0403bc000403000036
:020000040000fa
:0403c0000403000032
:020000040000fa
:0403c400040300002e
:020000040000fa
:0403c800040300002a
:020000040000fa
:0403cc000403000026
:020000040000fa
:0403d0000403000022
:020000040000fa
:0403d400040300001e
:020000040000fa
:0403d800040300001a
:020000040000fa
:0403dc000403000016
:020000040000fa
:0403e0000403000012
:020000040000fa
:0403e400040300000e
:020000040000fa
:0403e800040300000a
:020000040000fa
:0403ec000403000006
:020000040000fa
:0403f0000403000002
:020000040000fa
:0403f40004030000fe
:020000040000fa
:0403f80004030000fa
:020000040000fa
:0403fc0004030000f6
:020000040000fa
:100400000fd121000e7f22000e01880000000000a5
:10041000000020000000e000020032000001200087
:1004200020028800140007009a0007000000e00086
:1004300003003a0060372900010020000200370065
:100440000000200001002000810f70000100320038
:1004500014000700000020000000e000020032004d
:100460000000020000000000a4880200000000005c
:100470000040da000000fe004440a900c0602000f7
:100480000000e000030032000020200090018800fe
:100490004440a800000006008a1f78008b1f7800e7
:1004a00000000600a1028800800478000000eb0034
:1004b0001f003700e284440054a0b4009905ba003c
:1004c000e284440054a0b4009906ba00e2844400d7
:1004d00054a0b4000006eb00476fde00fd07b20039
:1004e000ae018800636ce10003003a00eaff0700f8
:1004f0000000eb000e003700606ce10008003a00dd
:10050000004deb000a05e800020039003420ec0041
:100510000af0a0008b05e900f9ff3e000400370057
:100520006168e100010032000086eb000b0007006b
:1005300019c7ba001905ba000e04e00003003a001a
:100540000a00e000dbff3a0000000600fe07b200f0
:10055000ae0288008a047800f5ff37000cd0a300b3
:10056000e20f4d001c00390089027800354dba00b9
:100570000a05e800020039003420ec000af0a0006f
:100580008b05e9000f003200254dba000a05e8008e
:10059000020039003420ec000af0a0008b05e900cd
:1005a000080032000c00e0000600320015cdba0051
:1005b0000a05e800020039003420ec000af0a0002f
:1005c0008b05e9008984e80054a0b4000b00e0002a
:1005d000e2ff3a00000006009902ba00055d7800cb
:1005e0008b05e900f7ff3200c82ade00055d7800c0
:1005f0008b05e900f3ff32000c00e000f1ff320050
:1006000019ddba00eeff37000040da000000fe00fe
:10061000889fbe0080047800a06880000000e00091
:1006200004003a000e0007000084eb000000e00028
:1006300008003500a86880000900e00005003200cd
:1006400009004400060007000000e00001003d0032
:100650000084eb00080078004f04be000000060094
:10066000800078000100e00003003a0060d1200023
:10067000a0688800000005000080eb0002d1210086
:10068000828f500002003e00a16888000000eb004d
:100690000000060000000500f4ff2f0002003700f4
:1006a0006011b8001b003700889fbe008a9fbe0003
:1006b000841f78006c0007004f00780011003300a1
:1006c000f0ff2f00838f6c0006003b0004056500df
:1006d0000a00a7000800370009f0a600100020005b
:1006e00008003700820f5400838f5c00030039003c
:1006f0001000200001003e000000200009f0a700cb
:100700000000ea004f05be004f04be000000e000fc
:1007100000000600889fbe008a9fbe000082700015
:100720000402710004827100260032000004be0041
:100730000200be006011b8006b0920009502200085
:100740000182cf000a0039000541b1000082cf00cc
:10075000070039000541b1000982cf0004003900cb
:100760000541b1000882cf00010039000541b10008
:1007700005425200120032000a003b0082817100e3
:10078000610164008100d1000080d3008984d3001e
:100790000884d3008b05e8000442e800f7ff3a0024
:1007a000070037000804440089844c00000048001a
:1007b000818048008b05e9000442e900f9ff3a0016
:1007c000030007004f05be004f04be0000000600f6
:1007d00081002000618055000b003d000b002000cf
:1007e00061fe2f000100e1001d00340082817100d4
:1007f000610164008904d1000884d3000000e8008e
:10080000faff3a00710020006100640003007000ec
:10081000020060000900320061044400e0844c00e2
:100820000988a500050032008b05e8006808e10092
:1008300002003a008904d1000884d300f20f20009e
:100840000258e10005003d00c75ddd00f907b20078
:100850008980750008007800000006000bf827006a
:100860008b007800000005000004be0006000700b1
:100870000003be000405be000200be000200070027
:10088000844f750000000600c70ade00f107b200c1
:10089000f50fb20008003200e1cf42000200320042
:1008a0000170a00024000500810f700001003200db
:1008b0000408050044000500810f700002003a00a2
:1008c000140005008502e9000000400081c04800d6
:1008d000fcff3b000170a00024000500889fbe00c3
:1008e0008a9fbe008c9fbe00e1cf2000f26780008f
:1008f0000200e0000b003a0064814000f2678800cb
:1009000042688800a1009800316888002141900069
:100910000204a000a2409800614190000204a000df
:10092000e2409800670440004244de004244dd009b
:100930003468800061d1200009d1210081845400f5
:100940002d002000110009008d04d80080067800d9
:100950000886e8000c0646008001eb000200370024
:10096000130020000b027800a44090000108a300af
:10097000020032000a003700120a780014017800e1
:10098000a24090000108a300fbff32008800420053
:10099000810f5100020039000800e00042003d00d4
:1009a000940578000b00a100848f5500edff3e00f8
:1009b000e18f5100eaff3a008d0f5400020036002b
:1009c000890f5400140039006141b8006148b90032
:1009d000b4ff2f00050020000000520081805a0063
:1009e000800f5100818f59000200350064054400da
:1009f0000a00370060d120003ad1210000055500df
:100a000008054500110009000985d8000980b900d2
:100a100000057800010037000c0578000a00780016
:100a2000fbfe0700e10f400005003a0064054400aa
:100a30000a007800f6fe0700e10f40002b003200ac
:100a4000416880008008780041688000e4814000af
:100a500021419000830f5000020032000204a000e8
:100a6000010037000204a100a2409800640555006f
:100a70000a0540000a0878004a688800e1cf200093
:100a8000010d780042688000a24090000104a0009f
:100a900021419800a04090000104a100214098004d
:100aa0008001eb00afff370031688800810f5100f3
:100ab000070036001101be00526888006368880094
:100ac000940878000041eb0031688000a240980053
:100ad00033688000030a7800a44090000104a0005d
:100ae0002142980064004200010037000000eb0042
:100af0004f06be004f05be004f04be0000000600ba
:100b00000000e000080032006400500031688000fe
:100b1000810f50000100310030688800a040900033
:100b20000104a1002140980000000600889fbe003b
:100b30008a9fbe000004be000900e00007003a00e2
:100b40000000eb000800e0003600320008007800ea
:100b5000ebff07000000eb00320037000800e00068
:100b600003003a00090078005cff07002d00370001
:100b7000640054009005780068f897000008a3000e
:100b80000200320008007800ddff0700090078004d
:100b900052ff0700800478000000eb000900e0002d
:100ba00020003200888f54001b00320069bd97007e
:100bb0000905550042d5de0088855500c2ddde00fe
:100bc0000a0178008b0f5500010036000b017800f8
:100bd0004211dd0088007800090078002d00070030
:100be000888f54000e0031004255dd000a85440014
:100bf000880f55000a0036000804550042c4de0084
:100c00004244dd0008844400506880006168800030
:100c1000008cbe0002003700080078000100370099
:100c2000090078004f05be004f04be00000006001a
:100c3000e68747008e1f7800d0bf9f00e1bf9f006e
:100c40000e0037005fba970014407800efb99700a4
:100c5000934078000201e900814f50000400320007
:100c60000080fb008180fb0001005000060037007f
:100c700066875700041fe800030fe8000200e00049
:100c8000f0ff3a000000eb004f0778006f00b10062
:100c9000000006008001780002003700b15978009a
:100ca0000201e9000200e000fcff3a00000006003b
:020000040000fa
:100cb000526f00007574000065200000526500004e
:100cc000706c0000792000004f4b00000d0a0000fe
:100cd00000200000526f00007574000065200000c5
:100ce00052650000706c0000792000004661000031
:100cf000696c0000656400000d0a0000004e0000f1
:100d0000756d000062650000722000006f660000d3
:100d1000205a00006967000062650000652000003d
:100d20006e650000747700006f7200006b20000099
:100d300068610000766500002062000065650000c3
:100d40006e200000666900006e6400003a2000001a
:100d5000000d00000a0000005072000065700000e5
:100d600061720000652000006a6f0000696e00007b
:100d7000207400006f2000006e6500007477000092
:100d80006f7200006b3a0000203000007800000015
:100d90004e6f000074200000666f0000756e00004a
:100da0006420000064650000736900007265000043
:100db000206e000065740000776f0000726b000009
:100dc000203000007831000041410000410d00005a
:100dd0000a000000466f0000756e000064200000ed
:100de000646500007369000072650000206e0000f9
:100df00065740000776f0000726b00002030000007
:100e00007831000041410000410d00000a0000005f
:100e10004e650000747700006f7200006b280000c0
:100e200073290000206600006f7500006e640000ea
:100e30002e20000054720000796900006e670000e7
:100e4000207400006f2000006a6f0000696e0000cf
:100e500020000000207c0000200000004e6f0000f9
:100e6000206e000065740000776f0000726b000058
:100e700073200000666f0000756e0000642e000095
:100e80002054000072790000696e000067200000a5
:100e900061670000616900006e2100000d0a00001a
:100ea0000020000045720000726f000072200000f8
:100eb000666900006e640000696e00006720000033
:100ec0006e650000747700006f7200006b2e0000ea
:100ed0002054000072790000696e00006720000055
:100ee00061670000616900006e2e00002e2e000078
:100ef0000d0a0000004a00006f6900006e2000002b
:100f0000746f000020740000686900007320000006
:100f10006e650000747700006f7200006b200000a7
:100f20004f4b0000210d00000a0000005374000028
:100f30006174000075730000200000002e20000086
:100f4000436f0000756c0000642000006e6f0000ad
:100f5000742000006a6f0000696e000020610000cc
:100f6000732000006f72000070680000616e000066
:100f70002e2000000054000072790000696e00000d
:100f8000672000006a6f0000696e000020610000a9
:100f9000732000006f72000070680000616e000036
:100fa0002061000067610000696e0000210d0000f3
:100fb0000a0000004d75000073740000206e0000f0
:100fc0006f7700002074000072790000206100003b
:100fd00073200000612000006e6500007720000093
:100fe0006e6f0000646500002e2e00002e0d0000c4
:100ff0000a0000002e200000436f0000756c000006
:10100000642000006e6f0000742000006a6f000012
:10101000696e000020730000656c000065630000cd
:1010200074650000642000006e65000074770000a5
:101030006f7200006b3a0000200000002e200000bc
:1010400054720000796900006e670000206e000095
:10105000657800007420000064690000736300007c
:101060006f7600006572000065640000206e00006d
:1010700065740000776f0000726b00003a2000007a
:10108000002e0000204300006c650000616e00002f
:10109000696e00006720000075700000206100008c
:1010a0006e64000020720000657400007279000018
:1010b000696e00006720000064690000736300002f
:1010c0006f76000065720000792100000d0a0000b3
:1010d000005200006f75000074650000722000006f
:1010e0005374000061720000746500006421000008
:1010f000204500006e610000626c0000696e000017
:10110000672000006a6f0000696e0000732e000007
:101110002e2e00000d0a0000005200006f75000026
:10112000746500007220000073740000617200009a
:101130007420000046610000696c000065640000d6
:101140003a0000002e2000005765000020630000d8
:10115000616e00006e6f000074200000726f00006e
:10116000757400006520000066720000616d00006b
:10117000657300000d0a0000004300007572000056
:10118000726500006e740000204e0000657400005f
:10119000776f0000726b0000204100006464000063
:1011a000726500007373000020690000733a00004c
:1011b000200000004e650000747700006f72000090
:1011c0006b20000041640000647200006573000041
:1011d0007320000068610000732000006a75000041
:1011e0007374000020720000652d00006173000020
:1011f00073690000676e00006564000020690000ec
:1012000073200000307800003030000030310000e2
:101210000d0a0000004a00006f6900006e20000007
:1012200070650000726d0000697300007369000052
:101230006f6e000020460000616900006c650000d0
:10124000643a0000200000002e20000057650000d6
:1012500020630000616e00006e6f000074200000cb
:10126000616c00006c6f0000772000006a6f000066
:10127000696e0000730d00000a0000004e6f000050
:101280006465000020000000205700006974000021
:10129000682000004d410000432000004164000030
:1012a00064720000657300007320000000200000dd
:1012b0006a75000073740000206a00006f69000006
:1012c0006e650000642e00000d0a0000005700004b
:1012d000652000006861000076650000206c000059
:1012e000656600007420000074680000652000003e
:1012f0006e650000747700006f7200006b0d0000d7
:101300000a000000416e00006f7400006865000074
:10131000722000006e6f000064650000206800000d
:1013200061730000206c00006566000074200000fe
:1013300074680000652000006e650000747700008e
:101340006f7200006b0d00000a0000005a69000077
:1013500067420000656500002053000074610000d2
:10136000636b0000206800006173000020620000d1
:10137000656500006e200000726500007365000066
:10138000740d00000a000000204c000065610000a0
:10139000766900006e670000207400006865000038
:1013a000205a0000696700006265000065200000a7
:1013b0006e650000747700006f7200006b0d000016
:1013c0000a000000235600004c3a000000230000f1
:1013d000574300003a000000235300004e3a00003b
:1013e00000230000534300003a0000004e6f00004d
:1013f0006e6500002073000075700000706f0000c3
:1014000072740000210d00000a000000234a000051
:101410004e3a000000230000524400003a00000051
:1014200023410000443a0000002300005243000022
:101430003a000000234f00004b3a00000023000058
:10144000545200003a000000204500007272000073
:101450006f72000020730000656e00006469000078
:101460006e670000206d000065730000736100006e
:10147000676500000d0a000000530000656e000063
:10148000646900006e670000206d00006573000055
:101490007361000067650000204f00004b210000d1
:1014a0000d0a00000050000065720000666f000029
:1014b000726d000020470000726f00007570000020
:1014c000204f000070650000726100007469000028
:1014d0006f6e00000d0a00000054000072790000d9
:1014e000696e000067200000746f0000206a000031
:1014f0006f6900006e2000006e65000074770000c8
:101500006f7200006b20000061730000206100001a
:101510006e2000006f72000070680000616e0000b5
:101520002e2e00002e0d00000a0000005472000054
:10153000796900006e670000207400006f200000d1
:101540006a6f0000696e0000206e00006574000084
:10155000776f0000726b00002061000073200000b4
:10156000612000006e6500007720000064650000c7
:101570007669000063650000210d00000a0000008c
:10158000536c00006565000070200000726500006b
:101590007175000065730000742000004f4b00005f
:1015a0000d0a0000004e00006f7200006d61000027
:1015b0006c2000004d6f0000646500002072000088
:1015c00065710000756500007374000065640000bb
:1015d000204f00004b0d00000a00000020550000c5
:1015e0006e680000616e0000646c000065640000bd
:1015f00020700000726900006d69000074690000cd
:10160000766500000d0a0000004900006e690000c8
:1016100074200000486100007264000077610000df
:10162000726500000d0a0000004900006e690000ac
:10163000742000005a6900006762000065650000c0
:101640000d0a00000052000026440000205a00004d
:101650006967000042650000652d0000526f0000c0
:101660007574000065720000204500004d420000c6
:10167000206200007920000057530000414e000016
:101680002d4c00006162000034310000310d00007b
:101690000a00000054720000616e000073630000d5
:1016a0006569000076650000722d00004d52000053
:1016b00046320000344a0000343000000d0a0000b9
:1016c0000000000000400000ce000000000000000c
:1016d0007f000000000000000000000010c10000ba
:1016e000000000000000000000000000000a0000f0
:1016f00000000000010000000200000003000000e4
:1017000004000000050000000600000020000000aa
:1017100021000000220000000a00000000800000fc
:1017200001800000028000000380000004800000af
:10173000058000000680000020800000218000005d
:1017400022800000f000000003010000ffff000005
:10175000000300000900000007000000190000005d
:101760000000000000000000000000000000000079
:101770000000000000000000000000000500000064
:1017800005000000060000000a0000001a0000002a
:101790000800000000000000000000000000000041
:1017a0000000000000000000000000000000000039
:1017b0000000000000000000000000000000000029
:1017c0000000000000000000000000000000000019
:1017d0000000000000000000000000000000000009
:1017e00000000000000000000000000000000000f9
:1017f00000000000000000000000000000000000e9
:1018000000000000000000000000000002010000d5
:101810000f0f00000005000000800000100600000f
:101820007800000000000000b4000000000000008c
:101830002c010000000000001c020000000000005d
:10184000fc03000000000000bc07000000000000d6
:101850003c0f0000000000003c1e000000000000e3
:101860003c3c0000000000003c780000000000004c
:101870003cf00000000000003ce00000010000001f
:101880003cc00000030000003c8000000700000096
:101890003c0000000f000000303100003233000037
:1018a000343500003637000038390000414200006e
:1018b0004344000045460000a00000000000000076
:0818c00000a300000400000079
:020000040000fa
:1018c800d05c8000f007b2000000ea004f00de00a4
:1018d800000006005448e20021003a0080c12000c0
:1018e80010007800e10060000000eb0038003200d2
:1018f800a1ce200032c1b300914f110034003e0048
:1019080020892000100078006200600005003a007d
:1019180001802000a0b92000908060001000200005
:101928002b0032000000eb0021ce200042c0b300a3
:10193800914f110026003e00e980400052c0b300dc
:10194800914f110022003e0000002100a1b92000a3
:10195800110060000000e9004f00de001c003700a5
:101968000000eb00a1ce200032c1b300914f11005e
:1019780017003e00208920001000780062006000f7
:1019880005003a0001802000a0b920009080600086
:10199800100020000e0032000000eb0021ce2000d5
:1019a80042c0b300914f110009003e00e980400099
:1019b80052c0b300914f110005003e000000210005
:1019c800a1b92000110060000000e9004f00de000e
:1019d80000000600889fbe008a1f78001608f800dd
:1019e8001a08f9000044eb00a9cd20000a202000c5
:1019f80022c1b300d1408000c0cc20009f40070026
:101a08001900650005003200200120001a28b400e2
:101a18000844e800f94f5400f5ff3a000840780000
:101a28004f0578004f04be00000006000400fa00cd
:101a3800889fbe008a1f780080047800f05c8000d0
:101a48000000e0000c003200e0b9200018c0b3002c
:101a5800030037000844e800e74f54003000320024
:101a68005000e000fbff3a000040eb00e74f540055
:101a780002003a002b0037000044eb000885fb0009
:101a880000c3b300c0430700800078000a80e80064
:101a980000004000a2b92000013178000040eb00ae
:101aa8000100e0001f003200884c78000a85e80039
:101ab8000a0545008204780069007d0080c0eb00bb
:101ac8004148980069047d006a8057009e430700da
:101ad8003fb89700cfb8970070049800010c9800a1
:101ae800100c9800210c980069017d00b208900044
:101af80000fd2f00008060000010a0003009980051
:101b080076004100f202b00031c0b30001687800ed
:101b1800820f5000fdff3a0010c0b30001003700eb
:101b28000040eb004f0578004f04be000080fa002b
:101b380000000600e6874700889fbe008a9fbe0017
:101b48008c9fbe008e1f7800000678000107780081
:101b580082067800e1408000f140880062c0b3004e
:101b6800e0ce2000454007000c0578007067800033
:101b78000044eb008c0f500066003a002300370049
:101b88000844e800f1408000e6804000f140880009
:101b98000b4178000900780038400700f04f5400e6
:101ba80004003200990f1500f5ff3a00f04f540079
:101bb80016003a00e1408000f140880062c0b3009e
:101bc800e0ce20002d400700806780000044eb0035
:101bd800e30f500045003a000c0037000844e800c5
:101be800f1408000e6804000f140880062c0b30008
:101bf8000a00780021400700f04f5400030032002b
:101c080030002000990f1000f4ff3a00884e780049
:101c18000044eb005808e2000a00320018c0b30084
:101c28005a08e2000700320028c0b3005c08e2004e
:101c38000400320048c0b3005e08e20001003a0028
:101c480038c0b300084f78000884fb0040c1b300d7
:101c58004d430700880044008285200000b17800c9
:101c68000045eb000000e00019003200e1ce200042
:101c78008c0878001a0020008a67880062c0b300c8
:101c8800f0408000314007000804440089852000a6
:101c9800888444001904780000c0eb0000549800c0
:101ca80072805700284307007fb097008fb89700cd
:101cb800008cbe00190078009d4678002d509800d1
:101cc8008000eb0061009800a0b920001010a0006f
:101cd8000a4078004f0778004f06be004f05be0047
:101ce8004f04be006f00b10000000600f140800004
:101cf800e6804000f140880062c0b300e0ce2000da
:101d0800de3f070018c0b30009cf20000985e900ad
:101d1800bbff3700f1408000e6804000f1408800ba
:101d280062c0b300e0ce2000d43f070018c0b30063
:101d3800e9ce20006bc0b3009aff370080407800de
:101d4800d0082000e2cf50000f00320007003e000c
:101d5800d04321000104e0000b003200d035200000
:101d6800e1cf500007003a0007003700500120007b
:101d7800e3cf50000400320010002000e4cf5000f0
:101d8800010032000000eb0000000600889fbe0042
:101d98008a9fbe008c9fbe00800478008106780070
:101da800020678001c08f8001e08f9000044eb0041
:101db8001ac0b3008845780062c0b300f1408000c3
:101dc800e0ce2000ad3f07008a40780070678000b1
:101dd800890f5000040032000844e8006000200029
:101de8001e28b4008b407800ef4f540003003e00db
:101df8000104e000f0ff32000300370001407800e2
:101e08000104e0000600320090678000800e780030
:101e180080678000004e780001407800020037009b
:101e280031c0b300014e78004f06be004f05be001a
:101e38004f04be0000000600889fbe008a9fbe00b7
:101e48008c9fbe008305780063852000688341006d
:101e58000045eb0018c0b300d30278000500e0008d
:101e6800090032000004e0000a003200e54b90004f
:101e780081cf530007003a00c5029000828f5200bc
:101e880004003a00020037000845780001003700d6
:101e980008457800868f5100efff3a000a40780025
:101ea80089c0b3000404e00001003d0009c1b3008b
:101eb8000004e0001b0032001c08f8001e08f900ae
:101ec8000045eb000904e000160032000a447800df
:101ed8001dc0b3000ccf200062c0b300f1408000e9
:101ee800e0ce2000653f0700706780008b0f500030
:101ef80004003200300020009c0f100004003a005b
:101f0800020037000d457800010037000d457800c4
:101f18000844e800600020001e28b40088cf540060
:101f2800edff3e000a4078004f06be004f05be0098
:101f38004f04be0000000600889fbe000004be00db
:101f480010c0b3000204e0000a0032000040eb00b9
:101f5800890f5400070031000240e90077ff0700ad
:101f68000804400010c0b300890f540001003e006f
:101f78000040eb004f04be0000000600889fbe0032
:101f88008a9fbe008c1f7800004678000004eb0092
:101f98008044eb004acd2000ab892000b14080008e
:101fa80081004400d140880022c1b300c0cc200089
:101fb800323f07001a0078009b0f50000b003a00d0
:101fc8000c86fb000c86e8000c064600a0b9200031
:101fd80060007e008984fb008904400079509000ed
:101fe8000004a100f0549800040037008944e80078
:101ff80072044400f9cf5400e8ff3a004f06780015
:102008004f05be004f04be00000006005648ec0015
:1020180056e8b70002003a0010c0b30056e8b7000f
:1020280056c8bf0000000600889fbe008a1f7800bf
:1020380074a8a90080cd20000008eb0030107800bb
:102048001608f8001a08f9000044eb0029c1b3008b
:102058006c055000094178008a007800d040800063
:102068003a3f07000844e800200120001a28b4007d
:10207800f94f5400f7ff3a000040eb0001ce200072
:102088008048780092c1b3008100e8008248780057
:10209800e9804000804878008100e80080487800a6
:1020a8000100e8001000a100ed805000c0532a0094
:1020b8008008780002c1b300c0408000233f0700b9
:1020c8004f0578004f04be0000000600889fbe0040
:1020d8008a1f780030002000806788000080eb00ad
:1020e800706788001c08f8001e08f90008c1b300d2
:1020f80069c0b300eace2000094178008a00780060
:10210800f0408000113f0700600020001e28b40046
:102118000844e900f8ff3a004f0578004f04be0074
:102128000000060020892000904078000040eb0065
:102138000104e00006003200208920000148e9007f
:102148008080e80011017800124078008208e800d9
:10215800000006000600fa00889fbe008a9fbe00a5
:102168008c9fbe000044780001457800905d800097
:102178000000e0000c00320020bb200019c0b300b2
:10218800030037008944e800e6cf540045013200d7
:102198005000e000fbff3a0040002000e6cf54006a
:1021a80002003a00400137008044eb008984fb00bc
:1021b800c0c0b300f4410700800078006c80440080
:1021c80000004000a2b92000013178004000200042
:1021d8000100e000340132000804e0005e00320033
:1021e80090618000a00098006c80440000004000ce
:1021f800820078006101780013458000330198005f
:102208006101780074c8b3000587200015424200b8
:10221800138720009341780083415200234198009e
:102228006100780020409000d74107000000e000de
:1022380009003a00ec84440089844400a8b92000cd
:1022480068807c00d341070009044400000ceb00bf
:102258004000200014013700ec80440081804000d9
:10226800a2b92000e2807800800878000a85fb0087
:102278004655dd00000178000a34a0000a597800ac
:10228800318920009140780001d94000218a20003e
:10229800115978008100e8001159780021c3200005
:1022a800115978008100e80011597800a1892000af
:1022b800114678000c597800f280400011597800d6
:1022c8001187200091407800e3c7b30083cf500006
:1022d8000c003e0068004000448b20008140e8006c
:1022e80016872000014b78008180fb0064d87800b5
:1022f80000017800118720009140780083cf5000ba
:10230800f6ff360070c8bf008040e900014278003f
:1023180003872000844978000004e0005800320058
:1023280002007800448b2000824050008180fb002e
:1023380064d8780001872000914078008141e90045
:102348000343780005872000864a78000104e000ee
:10235800f5ff3a004a003700428920001200780051
:1023680064025000d3448000a30098006c804400ad
:1023780000004000a1b92000e10278000402e90051
:10238800040978008401780023437800f642980015
:10239800e10278000309780093417800e34298004d
:1023a800630952008281e9001342780068414200c3
:1023b80082497800e1017800a24198006100780024
:1023c8002040900070410700000478000800e000f9
:1023d80009003a00ec84440089844400a8b920002c
:1023e80068807c006b41070009044400000ceb0086
:1023f80040002000ac0037006c8044000000400022
:10240800a1b92000610078000808780045ff07009e
:10241800f043b2000a85fb004655dd000a4c700007
:1024280040ff0700006c78003eff0700006c780052
:102438003cff0700006c78003aff0700006c78004a
:1024480038ff0700006c780036ff07000046e900f7
:102458000c6c780033ff0700006c7800208920009e
:102468001004e000060032000804e80000057800c7
:102478002cff0700005c78001a04e000fcff3a001b
:10248800ec8544008b854500aab920006a847d004c
:10249800708057002c4107000fb897009fb897002d
:1024a80040049800510498006a807d003000900034
:1024b80071815700f28057009efd07000004e0007c
:1024c8000a003a000a04be0068807c001000780008
:1024d8003041070068807c002e4107000904440051
:1024e800000ceb00400020006f0037007408a900c2
:1024f800f0c7b30071e8b7007068ef00efe8970025
:102508000180fb0000004000818520006104780004
:10251800e0c0b3001c410700600498000000e00020
:102528001e003a00100020008067880062c0b300d7
:10253800e1ce2000f0408000043e0700888520009e
:102548006fe997000280fb000000400068007800f7
:1025580010410700efe997000380fb0000004000ee
:10256800000444000005eb000a0c7800ec844400e9
:1025780089844400a8b9200068807c001000780095
:102588000441070068807c000241070009044400f8
:102598000a0c780040002000430037008d85200099
:1025a8006fea97008480fb0081804000ed8078000e
:1025b80012bb200092427800e54898002bc3200007
:1025c8001b037800c60098000045eb00fa48980005
:1025d800110a9000f38f2f008301620003a0a0006e
:1025e80003b0a1009308980011c0b3000148780017
:1025f8000004780000c8b300006c7800124078002e
:10260800006c78000049e800ec84440089844400a8
:1026180077005100e0807c00e1409000016c780078
:1026280060807c0070409000006c78000a6c780034
:1026380076fe0700006c7800080078000c687800c7
:102648008b00e800116878001b68780000e8eb0050
:10265800c1cfb300016878000a68780091c0b30060
:102668001140980070805700b7400700efe89700c6
:102678000180fb00000040006d007800d21f2c0094
:10268800f3ff2f000fba97009fba9700040141008b
:10269800858149002200980033009800100020002e
:1026a80001003700400020004f06be004f05be0065
:1026b8004f04be000080fa0000000600889fbe009c
:1026c8008a9fbe00800578001608f8001a08f900ed
:1026d8000044eb00a9cd20000a20200022c1b3004d
:1026e800d1408000c0cc2000643d0700190065007f
:1026f8000600320082002000c1cc20000b007800c8
:1027080049f907000000e000050032000844e8002d
:10271800200120001a28b400f94f5400efff3a00b6
:10272800084078004f05be004f04be0000000600b8
:10273800889fbe008a9fbe00000578001608f80032
:102748001a08f9000044eb00a9cd2000e6855400e2
:1027580022c1b300d1408000c0cc2000473d070013
:102768000020200019006000020032009b0f1500b5
:10277800050032000844e800200120001a28b400af
:10278800f94f5400f2ff3a00084078004f05be00a8
:102798004f04be0000000600889fbe008a9fbe004e
:1027a8008c9fbe008e1f7800000678000107780015
:1027b8001608f8001a08f9000044eb00c9cc2000fc
:1027c8006e8544000b202000e886440022c1b30037
:1027d800d140800009007800283d07001a80650074
:1027e800050032009d0f160003003a0060cd20005e
:1027f800900f1700050032000844e800200120006f
:102808001a28b400f94f5400f0ff3a000840780045
:102818004f0778004f06be004f05be004f04be00ac
:10282800000006000800fa00e8805700c2c528002a
:1028380007000900b258780082002000e88057009d
:10284800f9f8070000f0a7000000ea000000e9001e
:102858004f00de000080fa0000000600889fbe00de
:102868008a9fbe008c1f78001608f8001a08f90025
:102878000044eb00a9cd20000a0c20000986e900dd
:102888000bce200022c1b300d1408000c0cc200074
:10289800fa3c0700190078000098a3000d003200e8
:1028a8000a00600001042000810f50000900320076
:1028b8000000e00007003200000eeb003c16780034
:1028c8009b4de90022c1b300c1cc2000d04080005c
:1028d8001e3d07000844e800200120001a28b40023
:1028e800f94f5400e7ff3a0002c1b300e1cd2000e0
:1028f800c0408000153d07004f0678004f05be0018
:102908004f04be00000006007408a80023c0b300ee
:10291800828920000349780002c32000120278004f
:10292800b444880094618000d444880094892000cd
:10293800034a780012017800524588001045880043
:10294800c2c220001241780082487800f300420099
:1029580082487800f78050008048eb00e10f400083
:102968000b0032008100e9001180a00070ff070011
:10297800f94f50000600320000102000a1cd2000c1
:102988001100600002003a004089200010a0a00059
:1029980011c0b300408920000148780000000600fb
:1029a8000200fa00889fbe008a9fbe008204780059
:1029b800804578004805de00e4cf5000130032005f
:1029c8008180fb0081804000808520006080780045
:1029d8002050900062c0b3000440bc00e340800077
:1029e80083004100f140880062c0b300e0ce2000bf
:1029f800a23c070000cf20000008eb0062c0b30033
:102a08008080e900f0408000d03c070070c8bf001b
:102a18008080fb00488b200022c0b30002f47800bd
:102a28000040e8008080fb001941900002f4780023
:102a38000040e8008080fb002941900002f4780003
:102a48000040e8008080fb000bf478000040e800bc
:102a58008080fb000af478000040e8008080fb00da
:102a68004941900002f478000040e8008080fb00b3
:102a78005941900002f478000040e8008080fb0093
:102a8800e944900009f478000040e80070e8b700d5
:102a980019872000994478005cfd07008980fb00b5
:102aa80000f478000940e9008080fb00a2c0b30070
:102ab80002f478000040e9008080fb0032c3200067
:102ac8001241780002f478000040e9008080fb00a1
:102ad80022c320001241780002f478000040e90087
:102ae8008080fb000af478000040e9008080fb0049
:102af8000bf478000040e9008080fb000041eb0007
:102b080002f478000040e9008080fb0092c0b30026
:102b180002f478000040e90071e8b700ea80570045
:102b2800d044800078ff07004f05be004f04be0068
:102b38000080fa0000000600e4874700889fbe0076
:102b48008a9fbe008c9fbe008e1f7800000678000a
:102b580081bf9f001608f8001a08f90098c1b30051
:102b6800a9cd20000a2c20000b242000e686540062
:102b78002ece200022c1b300d1408000c0cc20005e
:102b88003e3c0700190065008b0f50000d003a000d
:102b98009d0f5600060032001e41e8008c007800a8
:102ba8001d007800e4fc07000004e0000500320086
:102bb800a16680000fb897000108780010c0b30024
:102bc80009003700200120001a28b4000844e90051
:102bd800e8ff3a000a003700516180000fb89700fb
:102be8000108780010c0b3004f0778004f06be00f8
:102bf8004f05be004f04be004f00b10000000600a4
:102c080020ce2000104178008c0078009061800070
:102c1800c9fc07000004e000efff32000040eb00b1
:102c2800f1ff37000200fa00889fbe008a9fbe00ad
:102c38008045780001047800024578008304780014
:102c480008007800bafe0700f94f50000b00320068
:102c5800000c2000a1cd200011006000010420001c
:102c6800810f5000020032000000e00003003a002b
:102c7800880c78000000eb002800370004c8b30077
:102c880088017800926180008040eb000140780064
:102c980069fc07000004e00016003200e24f55000e
:102ca80004003a0011c0b3000b40780029fd07006a
:102cb8001a0037006a8157000800be0033fc07007d
:102cc8000004e000050032000000eb00eff0970080
:102cd8000104e00007003a0010003700e14f5500fa
:102ce80004003a0011c0b3000b40780019fd07003a
:102cf8000a0037000800be008fff070080407800f8
:102d08000000eb000104e00004003a0011cdb3001c
:102d18002089200001487800200020004f05be00cf
:102d28004f04be000080fa00000006000004e00026
:102d38002a00320090c120000048eb0011c2b30005
:102d48000000e8000148780020ce200010407800fc
:102d5800310020008100dd00b2c120000149780067
:102d6800a2ce200033c1b30092cf11001b003e0059
:102d78006a01510083c1b30092cf110017003e00d1
:102d880002802000a3b920001301610005003a0069
:102d9800e44f500003003e00b0c120000174a000c1
:102da8000148780020ce200041c0b30090cf100029
:102db8000a003e006900400053c0b30090cf1100e4
:102dc80006003e0000002100a1b9200011006000ab
:102dd80002003a00b0c120001024a0000000060044
:102de800d166800001007800000cb20002042000c7
:102df800820f50000a003a00a0ce20001048e900d7
:102e08000103b200f08f500002003a000000e80011
:102e18001048e90010c0b300c4ff070005003700e0
:102e28000000e00003003a0091c1b30010ce20007a
:102e38000148780080cd20000008eb0030107800b1
:102e480022c1b300ec005000d0408000bf3b070017
:102e580000ce20001048e90002c1b3008080e900dc
:102e6800c0408000b93b070000000600a089200090
:102e78001001be0062668800736688002001900019
:102e8800b0019000826688009366880083618000a4
:102e9800b3668800c0cd200000c8eb002089200060
:102ea80010007800620060000f003a00a0cd2000fa
:102eb800f1fc2f00908060000150a000010878000c
:102ec80060ce200090007800a16688008100e800ac
:102ed80001087800e28f400017003a00a0b92000ee
:102ee80010b0a00014003700a0cd2000f1fc2f0086
:102ef800908060000140a0000108780080ce20008a
:102f080010017800a2668800e30040009148e800bc
:102f18002267800090004100010878006611b9001e
:102f280020c3200010014100828f500002003600ab
:102f3800a0b9200010c0a000a0cd200091448000be
:102f4800c508dd000110b200100178000280a10060
:102f580082807000f2f32f00828060000124b300a9
:102f68000108780022c1b300ee005000d040800074
:102f7800763b0700a0ce20001048e8006a00500009
:102f88001048e80002c1b3008080e900c04080001a
:102f98006e3b070010c0b30064ff07000000060086
:102fa800889fbe008a9fbe008c1f780080447800ee
:102fb8003008800056e8b7007468ef00a0b9200018
:102fc800100178000008eb003010780001002200a2
:102fd800810061001001780002d0a1000108710091
:102fe80070b42000c2042000000141008040eb00c2
:102ff800014878000080e800820f5000fcff3a008a
:103008000904e00004003a00c05e80000000e0000f
:10301800010032005f3e070080bd20000008eb0081
:1030280068fc2f00000444006e0544008005eb0096
:103038000904e00007003a00180078000000e000ea
:103048000400320010007800523e07001800780093
:10305800503e07000b1c78008a0f5400f4ff3a001a
:1030680028bb20006c0544008005eb000904e00043
:1030780007003a00180078000000e0000400320061
:1030880010007800433e070018007800413e070012
:103098000b1c78008a0f5400f4ff3a008885200042
:1030a800680544008005eb000904e00004003a00cc
:1030b800180078000000e00001003200353e0700eb
:1030c8000b1c78008a0f5400f7ff3a00fffb07003b
:1030d8004f0678004f05be004f04be0000000600f2
:1030e8002f03b000889fbe008a9fbe008c9fbe0041
:1030f8008e1f780000047800a0fd2f000f0040000c
:10310800113e07005fa89700efa89700f0b79f004f
:1031180081bf9f00a0b92000100078006400600003
:1031280011003200c0ba20007fb297008fba970012
:1031380030015200a0815a00640040001082fb0058
:103148008002eb0040422f000020b800800f5100a1
:10315800818f59000400360080c120001000a100b2
:10316800a0b920001020a1000800e0007a043a006d
:103178000000eb007408ab0032123a00a0b920003e
:10318800100078006100600047013200ccb92000cf
:103198008006eb00ddb79f000c86e800ecb79f00c7
:1031a8001c0578000a00e0002c0132007fb097006f
:1031b8008fb89700b0b79f00c1b79f001a0c900056
:1031c800aa0c900008045000898458000800be002a
:1031d80031f5070002a02b00b37524002cf5070079
:1031e8000000e000080034001a007800e93d0700fc
:1031f800efb1970013007800e63d07006fb2970023
:10320800000aeb0015013700ba0890000158a30026
:1032180012013a000e20a1000e10a100ca4d900024
:10322800f9cf550050003200e1cf450017003a00b1
:103238007a0090008a0890003fb39700cfb39700b8
:103248000000530081805b00f7e12400870f5000e5
:10325800e08f5800400036000080eb00a0a79f00d8
:103268000e20a0000e10a000a0fd2f000f004000af
:10327800b53d07005fa89700efa89700100d9800cc
:10328800210d98008045eb00330037006fb497009c
:103298000b40780022c1b3000440bc00b04080005d
:1032a80080004100d140880022c1b300c0cc20007a
:1032b800723a0700a1cd2000110078000098a30001
:1032c80005003a000b80fb00180040008040eb002e
:1032d800715098001b003700980078004101900059
:1032e800e40f410009003200e30f410002003a00f8
:1032f8000088a3000500320043cd200013017800a8
:10330800b1019000830f510005003a000b80fb00cb
:10331800808040000040eb00f05098000900370022
:103328000088a30007003a00a2a79f000e20a00073
:103338000b80fb0080804000715090000004a100c9
:10334800f05098008b45e8000e28a30002003a00d0
:10335800f8cf5500ceff3600efb297001500780081
:103368004b489800330037000e00a0002689200043
:10337800004beb00ba0990000000eb0012c0b3004c
:103388000388a300040032000a0037000241e80065
:10339800f94f5100250032000000e8008001450087
:1033a800f35190000308a300f8ff3200f94f5100d1
:1033b8001e00320000cfb30027892000804b780020
:1033c800ef8060001900320030422f000100200019
:1033d800800f5400818f5c00130036000e00a1009e
:1033e8000080eb00a0a79f000e20a0003a089000e4
:1033f800ef404000ef80600002ff2f0002006000f5
:1034080000807000300d9800a0fd2f000f004000d4
:103418004d3d07005fa99700efa99700120d98008e
:10342800230d9800010037000e00a1000e08a3002c
:1034380025003a000e4078000e0278000428a30008
:1034480086003200dfb4970068c2b3000018a300fa
:103458002d0032000980e80000004000a1b92000da
:1034680061007800b000900020c32000908f5000c9
:1034780025003a0070b420000044eb001004e0007e
:1034880006003a00200037000844e8000080e80001
:10349800814f540004003a000800370090b420001f
:1034a80018c0b30061c2b3001004e000f6ff3a0090
:1034b80060c2b300804f540013003a0011cfb3002c
:1034c8002089200001487800dfb297000580e800d5
:1034d80000004000a1b9200061007800c18a2000e6
:1034e8003043900086487800b00890000150a00052
:1034f800310898000000eb000148a3005111320088
:10350800400320004f1137001187200091407800b8
:103518000980e80000004000a2b92000620178009c
:103528008181fb00408b2000b243900007f07900b6
:103538008140e9008181fb004242900004f079005b
:103548008140e9008181fb00f242900005f079009a
:103558008140e9008181fb006243900006f0790018
:103568008140e9008181fb00924b900007f07900cf
:103578008140e9008181fb00024a900004f0790053
:103588008140e9008181fb00a24a900005f07900a2
:103598008140e9008181fb00324b900006f0790000
:1035a8008140e9000140780071e8b7008040eb00f5
:1035b800a1c79f0012027800224090000004e0009a
:1035c8001000320004007800458b2000018720009d
:1035d800914078008181fb003043780086f27900c1
:1035e8008140e8008141780007872000834b7800fc
:1035f80084405000a1c79f00a241900081cf510094
:10360800f2ff3e0021fc2f008f8040002fa0970082
:10361800bdfc07000001200061c2b300814f5400c7
:10362800081132000884fb000804440060b420003c
:103638002fc2970004707c008984e80089844400c4
:10364800a0b92000e0807c0070b42000b140900058
:1036580001707c0000012000fa1037008d06e80098
:10366800e78f5600cbfe3a00f05c80000000e000d7
:10367800050032000c0037000040e800e74f50001a
:1036880003003a0006003700e1b9200010c0b3007b
:103698005100e000f8ff3200e74f500002003a0006
:1036a800a0b920001000a100a0b9200010007800e7
:1036b80062006000f60132007fb297008fba97006f
:1036c80068852000880178008000eb002ce023004a
:1036d8000d002000080078000404be008005780072
:1036e80001057800530078000000e0006000320017
:1036f800600190000200e0005d003200900a900036
:1037080005b8a30008003a0020039000b003900019
:103718000603540087835c008c0f53008d8f5b0079
:10372800530036000b00370020039000b0039000d0
:103738000603540087835c00f4c3290005002000b9
:10374800840f5300858f5b004900360082017800a2
:1037580001003700820178008042eb00a5c79f0076
:103768008303780066834100458b20000187200091
:10377800914078000182fb003244780088727a0018
:103788008140e8000144780004872000084a780056
:1037980087405100a1c79f00860f5100f3ff3a00f0
:1037a800e68141000041eb00a2c79f0082407800fb
:1037b800458b200012872000124178000282fb000e
:1037c8003343780086727a000241e90002447800a7
:1037d80017872000884b78008140e800a1c79f0028
:1037e800e8cf5000f3ff3a009008900001b0a10024
:1037f8004809de0067414100670161004811dd00aa
:10380800f38f2f00838060008100710011089800f9
:103818007fb197008fb99700220098003300980075
:103828000a00450081852000610078001009900099
:10383800017020008100610007003a0060009000dc
:10384800543c07000a0545008085200060007d0083
:103858008000eb006100980021fc2f008f80400061
:103868000080eb0028fc07000001200075103700dd
:103878008100e800e48f500099ff3a000b047800bb
:10388800eb8520008c9628009d0020000ecf20009c
:103898000884e80088047800180078000000e00038
:1038a800210032007fb297008fba97003001520092
:1038b800a0815a008c0f51008d8f59001a003600d4
:1038c8002050900062c0b3000440bc00e14080007a
:1038d80081004100f140880062c0b300e0ce2000c2
:1038e800e6380700150020009e8f120006003a00f7
:1038f80020002000000f780062c0b300e1ce200055
:10390800f04080001139070019007800600090002d
:103918000000e000010032001e3c0700190078009a
:103928001c3c0700800ceb008b0f5400d8ff3a00ba
:103938000043eb00a6c79f0006407800a8b9200006
:103948000080fb006c004000000040006800780028
:103958000000e0000c0132003000900062fc2f00f3
:103968000f01410041fc2f008f80400007f907003c
:103978000004e000850032006fc097000004e000fa
:1039880076003a00afc397000780fb006c00400048
:1039980000004000a1b92000e1017800a3009000d8
:1039a8000044eb0020c32000908f50002d003a0007
:1039b80070b420001004e00006003a002900370027
:1039c8000844e8000080e800814f540004003a00f1
:1039d8000800370090b4200018c0b30061c2b300db
:1039e8001004e000f6ff3a0060c2b300804f5400b4
:1039f8001c003a0093007800c08a2000f140900033
:103a08000148780011cfb3007a00500001487800cf
:103a180013007800df3b07002fc497000880fb00e5
:103a28006c00400000004000a8b920006800780041
:103a3800d83b0700afc097000180fb006c00400036
:103a48000000400000044400000ceb007408a900ca
:103a5800f0c7b30071e8b7007068ef0040032000ba
:103a6800f80f3700130278000040eb00b0c79f0042
:103a7800234090000004e0001000320004007800a9
:103a8800458b200001872000914078000181fb00d0
:103a980030437800867279008140e800014178005f
:103aa80007872000824b780084405000b1c79f00f0
:103ab80023419000814f5100f2ff3e0031fc2f005e
:103ac8008f8040002fa097008ffb0700afc19700a1
:103ad8000380fb006c00400000004000a1b92000fa
:103ae800610078002001900021c32000910f51004f
:103af80009003a000884fb000804440061b420006f
:103b08003fc2970084707c00100178008100e800b3
:103b18007241900082707c00100078009d3b070085
:103b2800afc297000580fb006c0040000000400019
:103b3800a8b9200068007800963b07002fc39700bb
:103b48000680fb006c0040000000400000044400b8
:103b5800000ceb0000012000ba0f3700e24f5000c4
:103b680089003a00afc397000780fb006c00400053
:103b780000004000a1b9200061007800a00090007a
:103b880020c32000908f500020003a002fc49700d7
:103b98000880fb006c00400000004000a8b920002d
:103ba8006800780010017800c18a200072419000f6
:103bb80082487800fa8050008048eb0010007800b6
:103bc800743b0700afc097000180fb006c00400009
:103bd80000004000680078006e3b07002fc1970086
:103be8000280fb006c00400000004000000444001c
:103bf800000ceb007408a900f0c7b30071e8b70027
:103c08007068ef00400320008e0f370018872000ef
:103c180018447800fdf807008880fb00428b2000dc
:103c280000f178008841e9000380fb00a1c0b300df
:103c3800017178008341e9000380fb0031c3200053
:103c4800117178008341e9000380fb0021c3200043
:103c5800117178008341e90021fc2f008f8040001a
:103c68003180fb006c00400000004000a8b9200033
:103c7800680078000382fb00d042900005717a004a
:103c88008341e9000382fb004043900006717a00fb
:103c98008341e9008382fb000042eb0004f17a00d3
:103ca8008341e9008382fb0096c0b30006f17a00e5
:103cb8008341e9008342780017872000854b78000c
:103cc80003872000934178008382fb0036c0b3004d
:103cd80006f17a008341e8008382fb0004f17a0050
:103ce8008341e8000382fb006043900006717a007c
:103cf8008341e8000382fb00f043900007717a00db
:103d08008341e800034278000287200004497800d4
:103d180020009000fcfa0700afc297000580fb0066
:103d28006c00400000004000680078001000780037
:103d3800183b07002fc397000680fb006c0040006b
:103d480000004000680078000005eb000a087800d1
:103d5800afc397000780fb006c00400000004000e4
:103d6800680078000b3b0700afc097000180fb009c
:103d78006c00400000004000000444000a0c780079
:103d8800000120002f0f37002fc197000240e800e4
:103d9800a0c79f00e54f5000e9fe36008041eb00c8
:103da800a3c79f001c08f8001e08f900e8ce2000f1
:103db8000885e80062c0b300f14080000800780080
:103dc800ae370700240020009a0f12000c003a00ba
:103dd8003000200080678800e1ce20008088eb005a
:103de80062c0b300f0408000d837070021c0b3009c
:103df800208920000148780030072000110f370083
:103e0800afc297008540e800a1c79f00600020006e
:103e18001e28b400efcf5000e6ff36000043eb0049
:103e2800a6c79f00905d80000000e000340f3200bc
:103e3800170037000040e800e64f50000600320047
:103e4800004178005100e000faff3200a2c79f004d
:103e5800e64f50000e003a008043eb00a7c79f00d2
:103e68005808e2001e0f32000900370040c0b300b6
:103e7800a0c79f00a0b920001010a10004003700bf
:103e880010c0b3000100370020c0b300a0c79f00d6
:103e9800d15c80000100e00010003d0000bf200060
:103ea8007fb297008fba970030015200a0815a0064
:103eb80005802700850f5100e08f59000700360064
:103ec800a1ccb30020892000014878000080eb00d5
:103ed800c0448800a0032000da0e37000178a30050
:103ee80014003200a0b920001070a100e1b2200037
:103ef80020892000114878008100e8000000e800cf
:103f080011487800b6598000d64488006f004000f8
:103f1800ef804000311878002110780021019000ce
:103f2800b10190002200980033009800c0042000de
:103f3800c40e37000000eb000138a300c10e3200a8
:103f48000168a30007003200a0b920001060a1009a
:103f580011c0b300208920000148780040022000e9
:103f6800b80e37000000eb000158a300b50e3a0068
:103f780010be200093c1b30090cf1100770032002b
:103f88000042eb00a4c79f0000047800a9cd2000e0
:103f98001880fb007200b9001608b400d0408800f1
:103fa80022c1b30080007800c0cc2000333707005e
:103fb800012c20009980600000242000808f500090
:103fc80002003200184ce8000200370010c0b300ad
:103fd800a0c79f0018407800f84f500004003e002a
:103fe800afc297000504e000e9ff32000300370084
:103ff8002fc397000604e0006000320011be2000c5
:104008008048e800188720001844780041cd200037
:104018006882500008407800438b20000081fb0034
:10402800c1437800877179000040e900848f50000f
:10403800faff3a00e844540080c0b300a0c79f00cc
:104048001087200009487800f0f707008984fb00f2
:10405800418b200080f07c00694054000080fb0008
:1040680012c0b300827078006a4054000080fb00e0
:1040780032c32000927078006b4054000080fb002f
:1040880022c32000927078006c4054000080fb002e
:1040980052cd2000927078006d4054000080fb00e3
:1040a80042cd2000927078006e4054000080fb00e2
:1040b8000041eb00827078006f4054000080fb00e4
:1040c8000001e800e14179000334a0008370790021
:1040d80092c0b30082707800704454008841780020
:1040e800128720000349780070c8bf000081fb00d8
:1040f80043c0b300837079000040e80001c4b300f6
:10410800a1c79f00d15c80000198a3000200320083
:1041180002ccb300a2c79f0001d8a30003003a0055
:104128002fc297000454a000a4c79f008080fb0002
:10413800428b2000afc2970005f178000040e800ec
:1041480070e8b70021fc2f008f804000a066800037
:10415800edf90700000120003a0e3700a0b9200051
:104168001090a100a0ce20000048eb0002c1b300cf
:10417800ec005000c0408000f4360700002020000a
:10418800a1b9200011006000340e3200a0ce20003a
:104198001004e000100032008004200001004000fc
:1041a8007fb397008fbb970030025300a0825b005b
:1041b800226780008001eb006710b900f62f250008
:1041c8000611b800830140000000eb00820f520086
:1041d800838f5a001b0e3600a0b920001060a00083
:1041e80027c92000c8c5280007000900b85b780067
:1041f8001887200018447800a1c920006882500060
:1042080008407800438b20000081fb00c142780001
:10421800857179000040e900848f5000faff3a0068
:10422800e844540080c0b300a0c79f001687200050
:10423800094b780075f707008984fb00418b200043
:1042480080f07c00694054000080fb0012c0b3007d
:10425800827078006a4054000080fb0032c320005e
:10426800927078006b4054000080fb0022c320004d
:10427800927078006c4054000080fb0000c1eb0095
:10428800827078006d4054000080fb00c2cfb300fc
:10429800827078006e4154000281fb000040eb0000
:1042a800807079006f4154000281fb008201e800b0
:1042b80061c279000444a00084f0790093c0b3007f
:1042c8008370790070445400884178001287200078
:1042d8000349780002872000124178008281fb00a0
:1042e80044c0b30084f079000241e80082427800bb
:1042f80004872000054a7800a0c79f00d05c800092
:104308000098a30007003200a1ce20001104e000ad
:1043180004003a0000a8a3000200320000c8b3005d
:10432800a0c79f0070c8bf008080fb00428b2000a0
:104338002fc3970006f178000040e80070e8b70046
:1043480021fc2f008f8040000080eb006ef90700f1
:1043580000012000bb0d3700f0fe2f00f1ff2f00f9
:1043680000044400e084480017062000870f54002a
:10437800e08f5c00b00d3e0008600100610037006e
:10438800dc003700ac0d3700ab0d3700aa0d370045
:1043980011073700a80d370038073700a60d37007a
:1043a800a50d370090073700bf073700a20d37006b
:1043b800a10d3700a00d37009f0d37009e0d370067
:1043c800260837009c0d37009b0d37003008370052
:1043d800990d3700980d3700970d3700730837008f
:1043e8007a093700940d3700930d3700920d370086
:1043f80088093700900d37008f0d37008e0d370074
:104408008c0937009b0937008b0d37008a0d370060
:10441800890d3700880d3700870d3700860d370066
:10442800850d3700840d3700830d3700820d370066
:10443800810d3700800d37007f0d3700a30a370044
:10444800ee0a3700f20a3700100b3700370b370037
:10445800ef0b3700080c3700b60c3700ba0c3700e2
:10446800750d3700740d3700730d3700720d370066
:10447800710d3700700d37006f0d37006e0d370066
:104488006d0d37006c0d37006b0d37006a0d370066
:10449800690d3700680d3700670d3700660d370066
:1044a800650d3700640d3700630d3700620d370066
:1044b800610d3700600d37005f0d37005e0d370066
:1044c8005d0d37005c0d37005b0d37005a0d370066
:1044d800590d3700580d3700570d3700560d370066
:1044e800550d3700540d3700530d3700520d370066
:1044f800510d3700500d37004f0d37004e0d370066
:10450800a40c3700c08a2000904278007a0050003e
:10451800104378000041eb0002407800a3b9200066
:104528008083eb0001003700004178000080fb0029
:10453800c200dd006102b000e3807800e18f400036
:1045480048003200690240004222dd000482410036
:104558001442900084cf520042003a000604e00062
:104568003d00320081017800800078000300780067
:10457800a2c79f007408a800e9814000c219dd00a5
:10458800a8b920003293200068c97900a3c0b300fd
:104598000201e9000349780033c320000201e90061
:1045a800134978008301e9000201e9001349780002
:1045b800c208dd0072022000010141006841790053
:1045c800f3922000824978006102b000e8c07800c8
:1045d8008301e900814978008041eb00d4922000f2
:1045e800034a780095c0b3000402e900054a780040
:1045f80076c7b30015872000864a780035c0b30017
:10460800448b2000054a78000402e800034a780039
:104618008401e800814978008300e8008248780036
:1046280042c0b30007872000824b780021fc2f008e
:104638008f804000b4f80700afc197000380fb00eb
:104648004200dd00000444000080eb0030149800b4
:1046580000012000fb0c37004200dd000080410013
:10466800371098000240e800e54f5000aeff3600d2
:10467800c08a20001041780060b420008040eb0020
:10468800904f1100230d3a000a0037008140e800de
:104698000080e80083cf5000e90c3200904f1100f1
:1046a800faff3a000000eb0062c2b30082cf50006c
:1046b800e40c32008180fb000180400072b42000cd
:1046c800624178000040eb000204e0000300320081
:1046d800c08a20000248780040c3b30081804000af
:1046e80072b42000810041008048eb000080fb008c
:1046f800d40c37008bf60700a0ef9f00004278002b
:10470800c4ef9f0087f6070000477800eedf9f00a0
:1047180084f60700e0e79f000086fb0081f60700ab
:10472800c0e79f00004378004830dd000c067000a9
:104738007cf60700e0ef9f000085fb0079f6070094
:10474800804478004848dd000a05700075f60700c7
:10475800a0e79f0073f60700804678008ee79f0069
:104768000e0478000838a3000c0032000040eb006b
:10477800a0c79f00004478000bc1200069f607001d
:104788000884fb0080757c00afc097000144e800f6
:10479800a8c79f00e74f5400f8ff36000fe19700c5
:1047a8000248a3000c0032008041eb00a3c79f0021
:1047b800034478008bc020005af607000884fb00e9
:1047c80080757c002fc297000444e800a8c79f00aa
:1047d800e74f5400f8ff360010458000e10f400015
:1047e800a50c32000c047800e50f4600da0236000a
:1047f8008042eb00a5c79f002fc297008a0278006d
:10480800c2b920000040eb000100370000427800e8
:10481800d20078000100e0000b003200b1019000e6
:10482800838f520008003a00b14090008dcf5000ad
:1048380005003a00a4c79f00d0f507001f1807001d
:104848000000eb007f0c37000040e800e74f500005
:10485800eeff3a00a0c79f004feb9700634063004c
:10486800e14f500052023a002ef60700a0c79f0001
:10487800e14f5000a1013a0000102000a1b920002a
:10488800110060004702320020c32000900f55003d
:1048980003003a00091807000000eb00690c370014
:1048a80010c0b30080cf9f001ef6070090cf9f0076
:1048b8001cf60700a0cf9f001af60700c0cf9f0084
:1048c80018f60700d0cf9f0016f60700804478003e
:1048d8008940e800e1cf9f00d08a2000104078008e
:1048e80072cdb300824f500002003e008140e800c4
:1048f800e1cf9f0031cbb300814f500003003e0051
:10490800efc897008140e800e1cf9f00f1c8b300ed
:10491800814f500003003e00efc897008140e80037
:10492800e1cf9f00b1c6b300814f500003003e00a5
:10493800efc897008140e800e1cf9f0071c4b30041
:10494800814f500003003e00efc897008140e80007
:10495800e1cf9f0031c2b300814f500003003e00f9
:104968006fc897000040e800e0cf9f001fca97007b
:10497800efa197000a017800afc8970010c0b300f4
:104988002df507000004e000d1003200104580003a
:10499800e10f4000ce003a000040eb00e0c79f0066
:1049a800afca97000a02780080407800014078007a
:1049b80083852000040037000040e800e44f5000e1
:1049c8000d003200804078000081fb0002014100a8
:1049d800630479000800e000f7ff3200684990009e
:1049e800854f5100f4ff3a0048019000840f5100b0
:1049f800f1ff3a00230c3700e0c79f0072fc2f003c
:104a08000f01410061fc2f008f8040006fa09700cc
:104a180048f407000004e0002a003a0026003700a6
:104a2800d7448000570098007148980089c050000a
:104a3800115098006fa0970091618000808f5000fe
:104a4800090032003af70700f94f500057003200ca
:104a5800010c2000a0cd2000908060000004200000
:104a6800808f500051003a00941707000000eb00b7
:104a78007408ab00f30b3a00efc097000180fb000d
:104a880000004000828520006200780010509000ed
:104a9800e0cf9f0082fc2f000f0141000a00780040
:104aa800bff7070000012000e60b37008317070057
:104ab8000000eb00e30b3700801707000000eb0055
:104ac800e00b37006fc097000080fb00000040003b
:104ad80081852000610078002fcc970068489800f5
:104ae8004a009800d144800051009800efc8970010
:104af80071489800500190008a0f5100060032005a
:104b080090099000f28f2f00028161000280a000be
:104b1800120898000500370090099000f28f2f00c6
:104b2800028161000230b300120898001009900059
:104b380002b0a0001208980089c0500011509800d7
:104b48006fa0970091618000808f500009003200ab
:104b5800f7f60700f94f500014003200010c20004e
:104b6800a0cd20009080600000042000808f5000bd
:104b78000e003a00511707000000eb007408ab0064
:104b8800b00b3a006fc8970089445000e9cf9f00e6
:104b980082fc2f000f014100efc097000a00780047
:104ba8007ff7070000012000a60b37007408ab0050
:104bb800d2003a006fc097000080fb000000400060
:104bc8008185200061047800680090000000e00002
:104bd8000b003a00e0c0b3006b3707006004980090
:104be8006fc097000080fb00000040008185200016
:104bf80061007800600090000000e00031003200a1
:104c08000fc99700024878009fc997000368780089
:104c1800000478002fca9700046c7800cfca970068
:104c2800056c78005fcb9700066c7800efcb970097
:104c3800076c7800f5f40700006c7800080078002d
:104c48002fe497000868e900c850de000168780082
:104c58000a687800c860de00016878000c6878008f
:104c6800efd89700016878004fe997001240980044
:104c7800898520006fc097000080fb00000040007d
:104c880069047800a0fd2f000f0040002e370700b0
:104c98005faa9700efaa97002404980035049800ab
:104ca8006fc097000080fb0000004000690078009a
:104cb80010099000f18f2f008100610001a0a00071
:104cc80011089800fd1607000000eb005d0b370087
:104cd800d044800096f60700f94f500010003200cb
:104ce800010c2000a0cd200090806000000420006e
:104cf800808f50000a003a00d04480008a0f50008c
:104d08001200320020ce20001041e8008a0078000e
:104d1800d044800088f407000004e0000b003a004b
:104d2800d1448000a0c22000908f500070003a004b
:104d380020ce2000104178008a0078009061800021
:104d48007df407000004e00069003a006fa09700b6
:104d580091618000808f50000900320074f60700ce
:104d6800f94f500014003200010f2000a0cd2000a0
:104d78009080600000062000808f50000e003a00ee
:104d8800ce1607000000eb007408ab002d0b3a00ac
:104d98006fc8970089445000e9cf9f0082fc2f001c
:104da8000f01410041c0b3000a007800fcf607007b
:104db80000012000230b370041fc2f008f804000aa
:104dc8000c0078005cf707000004e00045003200a2
:104dd8007408ab0043003a0070c8bf008080fb0035
:104de800488b20008fca970005f478000040e8003f
:104df8008080fb001fcb970006f478000040e80095
:104e08008080fb00afcb970007f478000040e800f3
:104e18008080fb003fc9970002f478000040e8005a
:104e28008080fb00cfc9970003f478000040e800b9
:104e38008080fb005fca970004f478000040e80017
:104e480070e8b70019872000994478006ff40700cc
:104e58008980fb0000f478000940e9008080fb00ad
:104e6800a2c0b30002f478000040e9008080fb0093
:104e780032c320001241780002f478000040e900b3
:104e88008080fb0022c320001241780002f47800e1
:104e98000040e9008080fb004861de0002f47800f1
:104ea8000040e9008080fb000cf478000040e90035
:104eb8008080fb000041eb0002f478000040e9002c
:104ec8008080fb0092c0b30002f478000040e90043
:104ed80071e8b70021fc2f008f8040002fa09700b9
:104ee80089f607007516070000012000d50a37006b
:104ef800721607000000eb00d20a3700afc2970015
:104f0800e4cf5200a7003a0086f4070080447800f6
:104f180020c32000900f550003003a0067160700d1
:104f28000000eb00c70a37002fe39700e14f53005a
:104f38006200360070fc2f000f004000bbf2070033
:104f48000004e0005a0032007fc097008080fb0018
:104f58008180e80081804000a8b92000e8807800be
:104f6800310990000240a100b208980003f407003c
:104f7800ffc097008180fb00208920001040780046
:104f88008180e80081804000688178002041980095
:104f980068817800cfeb97003749980068817800de
:104fa800efd9970023499800688178004c01980050
:104fb800688178003a019800688178002fe29700ac
:104fc8008441e90043419800688178003d41980098
:104fd800688478006c360700000c78000000e00058
:104fe80010003a007fc097000080fb000080e800b6
:104ff80000004000a8b92000680078006536070066
:105008007fc097000080fb000080e800000040009f
:1050180000044400000ceb00281607000000eb0019
:10502800880a37008042eb00a5c79f007fc0970021
:105038000080fb000080e80000004000a1b92000cb
:10504800610078001000780041c0b3000148780082
:1050580010c0b300a0c79f00208920001004e00002
:1050680010003200acb92000800678002fc49700e9
:105078007fc097000080fb000080e800000040002f
:105088006c0078008885fb009085450025f40700b2
:10509800804d78000844e800a8c79f001d04e00080
:1050a800f2ff3a00a0b920001000a000030037006a
:1050b800021607000000eb00620a37000a007800b9
:1050c8009bf50700a0c79f00f94f5000350032003c
:1050d80043f70700f91507000040eb00218920007d
:1050e80080487800f0804000c3cc2000b3187800d6
:1050f800a3107800648141001203be00a600980046
:10510800b7009800e8805000b3187800a310780022
:10511800a6009800b7009800a0c79f0048cf2000bd
:10512800e8054400a2c0b3000440bc00114180005f
:1051380081004100a2c0b30008007800cf32070008
:105148009b0f55000a003a000080eb00e0678800da
:10515800afc297000580fb006a00b9002208b400be
:10516800a2c0b30041cf2000f83207000500370085
:105178002fc397000640e800a0c79f00e74f5000e4
:10518800e8ff3600c00320000968a3002d0a3a0092
:105198002089200007c2b30007c86400d00420009b
:1051a800280a3700c51507000000eb00250a37005c
:1051b8002fe49700e14f54005e00360070fc2f008a
:1051c8000f00400019f207000004e000560032000a
